{"contracts/ERC3475.sol":{"ERC3475":{"abi":[{"inputs":[],"stateMutability":"nonpayable","type":"constructor"},{"anonymous":false,"inputs":[{"indexed":true,"internalType":"address","name":"_owner","type":"address"},{"indexed":true,"internalType":"address","name":"_operator","type":"address"},{"indexed":false,"internalType":"bool","name":"_approved","type":"bool"}],"name":"ApprovalFor","type":"event"},{"anonymous":false,"inputs":[{"indexed":true,"internalType":"address","name":"_operator","type":"address"},{"indexed":true,"internalType":"address","name":"_from","type":"address"},{"components":[{"internalType":"uint256","name":"classId","type":"uint256"},{"internalType":"uint256","name":"nonceId","type":"uint256"},{"internalType":"uint256","name":"amount","type":"uint256"}],"indexed":false,"internalType":"struct IERC3475.Transaction[]","name":"_transactions","type":"tuple[]"}],"name":"Burn","type":"event"},{"anonymous":false,"inputs":[{"indexed":true,"internalType":"address","name":"_operator","type":"address"},{"indexed":true,"internalType":"address","name":"_to","type":"address"},{"components":[{"internalType":"uint256","name":"classId","type":"uint256"},{"internalType":"uint256","name":"nonceId","type":"uint256"},{"internalType":"uint256","name":"amount","type":"uint256"}],"indexed":false,"internalType":"struct IERC3475.Transaction[]","name":"_transactions","type":"tuple[]"}],"name":"Issue","type":"event"},{"anonymous":false,"inputs":[{"indexed":true,"internalType":"address","name":"_operator","type":"address"},{"indexed":true,"internalType":"address","name":"_from","type":"address"},{"components":[{"internalType":"uint256","name":"classId","type":"uint256"},{"internalType":"uint256","name":"nonceId","type":"uint256"},{"internalType":"uint256","name":"amount","type":"uint256"}],"indexed":false,"internalType":"struct IERC3475.Transaction[]","name":"_transactions","type":"tuple[]"}],"name":"Redeem","type":"event"},{"anonymous":false,"inputs":[{"indexed":true,"internalType":"address","name":"_operator","type":"address"},{"indexed":true,"internalType":"address","name":"_from","type":"address"},{"indexed":true,"internalType":"address","name":"_to","type":"address"},{"components":[{"internalType":"uint256","name":"classId","type":"uint256"},{"internalType":"uint256","name":"nonceId","type":"uint256"},{"internalType":"uint256","name":"amount","type":"uint256"}],"indexed":false,"internalType":"struct IERC3475.Transaction[]","name":"_transactions","type":"tuple[]"}],"name":"Transfer","type":"event"},{"inputs":[{"internalType":"uint256","name":"classId","type":"uint256"},{"internalType":"uint256","name":"nonceId","type":"uint256"}],"name":"activeSupply","outputs":[{"internalType":"uint256","name":"","type":"uint256"}],"stateMutability":"view","type":"function"},{"inputs":[{"internalType":"address","name":"_owner","type":"address"},{"internalType":"address","name":"spender","type":"address"},{"internalType":"uint256","name":"classId","type":"uint256"},{"internalType":"uint256","name":"nonceId","type":"uint256"}],"name":"allowance","outputs":[{"internalType":"uint256","name":"","type":"uint256"}],"stateMutability":"view","type":"function"},{"inputs":[{"internalType":"address","name":"_spender","type":"address"},{"components":[{"internalType":"uint256","name":"classId","type":"uint256"},{"internalType":"uint256","name":"nonceId","type":"uint256"},{"internalType":"uint256","name":"amount","type":"uint256"}],"internalType":"struct IERC3475.Transaction[]","name":"_transactions","type":"tuple[]"}],"name":"approve","outputs":[],"stateMutability":"nonpayable","type":"function"},{"inputs":[{"internalType":"address","name":"account","type":"address"},{"internalType":"uint256","name":"classId","type":"uint256"},{"internalType":"uint256","name":"nonceId","type":"uint256"}],"name":"balanceOf","outputs":[{"internalType":"uint256","name":"","type":"uint256"}],"stateMutability":"view","type":"function"},{"inputs":[{"internalType":"address","name":"_from","type":"address"},{"components":[{"internalType":"uint256","name":"classId","type":"uint256"},{"internalType":"uint256","name":"nonceId","type":"uint256"},{"internalType":"uint256","name":"amount","type":"uint256"}],"internalType":"struct IERC3475.Transaction[]","name":"_transactions","type":"tuple[]"}],"name":"burn","outputs":[],"stateMutability":"nonpayable","type":"function"},{"inputs":[{"internalType":"uint256","name":"classId","type":"uint256"},{"internalType":"uint256","name":"nonceId","type":"uint256"}],"name":"burnedSupply","outputs":[{"internalType":"uint256","name":"","type":"uint256"}],"stateMutability":"view","type":"function"},{"inputs":[{"internalType":"uint256","name":"metadataId","type":"uint256"}],"name":"classMetadata","outputs":[{"components":[{"internalType":"string","name":"title","type":"string"},{"internalType":"string","name":"_type","type":"string"},{"internalType":"string","name":"description","type":"string"}],"internalType":"struct IERC3475.Metadata","name":"","type":"tuple"}],"stateMutability":"view","type":"function"},{"inputs":[{"internalType":"uint256","name":"classId","type":"uint256"},{"internalType":"uint256","name":"metadataId","type":"uint256"}],"name":"classValues","outputs":[{"components":[{"internalType":"string","name":"stringValue","type":"string"},{"internalType":"uint256","name":"uintValue","type":"uint256"},{"internalType":"address","name":"addressValue","type":"address"},{"internalType":"bool","name":"boolValue","type":"bool"}],"internalType":"struct IERC3475.Values","name":"","type":"tuple"}],"stateMutability":"view","type":"function"},{"inputs":[{"internalType":"uint256","name":"classId","type":"uint256"},{"internalType":"uint256","name":"nonceId","type":"uint256"}],"name":"getProgress","outputs":[{"internalType":"uint256","name":"progressAchieved","type":"uint256"},{"internalType":"uint256","name":"progressRemaining","type":"uint256"}],"stateMutability":"view","type":"function"},{"inputs":[{"internalType":"address","name":"_owner","type":"address"},{"internalType":"address","name":"operator","type":"address"}],"name":"isApprovedFor","outputs":[{"internalType":"bool","name":"","type":"bool"}],"stateMutability":"view","type":"function"},{"inputs":[{"internalType":"address","name":"_to","type":"address"},{"components":[{"internalType":"uint256","name":"classId","type":"uint256"},{"internalType":"uint256","name":"nonceId","type":"uint256"},{"internalType":"uint256","name":"amount","type":"uint256"}],"internalType":"struct IERC3475.Transaction[]","name":"_transactions","type":"tuple[]"}],"name":"issue","outputs":[],"stateMutability":"nonpayable","type":"function"},{"inputs":[{"internalType":"uint256","name":"classId","type":"uint256"},{"internalType":"uint256","name":"metadataId","type":"uint256"}],"name":"nonceMetadata","outputs":[{"components":[{"internalType":"string","name":"title","type":"string"},{"internalType":"string","name":"_type","type":"string"},{"internalType":"string","name":"description","type":"string"}],"internalType":"struct IERC3475.Metadata","name":"","type":"tuple"}],"stateMutability":"view","type":"function"},{"inputs":[{"internalType":"uint256","name":"classId","type":"uint256"},{"internalType":"uint256","name":"nonceId","type":"uint256"},{"internalType":"uint256","name":"metadataId","type":"uint256"}],"name":"nonceValues","outputs":[{"components":[{"internalType":"string","name":"stringValue","type":"string"},{"internalType":"uint256","name":"uintValue","type":"uint256"},{"internalType":"address","name":"addressValue","type":"address"},{"internalType":"bool","name":"boolValue","type":"bool"}],"internalType":"struct IERC3475.Values","name":"","type":"tuple"}],"stateMutability":"view","type":"function"},{"inputs":[{"internalType":"address","name":"_from","type":"address"},{"components":[{"internalType":"uint256","name":"classId","type":"uint256"},{"internalType":"uint256","name":"nonceId","type":"uint256"},{"internalType":"uint256","name":"amount","type":"uint256"}],"internalType":"struct IERC3475.Transaction[]","name":"_transactions","type":"tuple[]"}],"name":"redeem","outputs":[],"stateMutability":"nonpayable","type":"function"},{"inputs":[{"internalType":"uint256","name":"classId","type":"uint256"},{"internalType":"uint256","name":"nonceId","type":"uint256"}],"name":"redeemedSupply","outputs":[{"internalType":"uint256","name":"","type":"uint256"}],"stateMutability":"view","type":"function"},{"inputs":[{"internalType":"address","name":"operator","type":"address"},{"internalType":"bool","name":"approved","type":"bool"}],"name":"setApprovalFor","outputs":[],"stateMutability":"nonpayable","type":"function"},{"inputs":[{"internalType":"uint256","name":"classId","type":"uint256"},{"internalType":"uint256","name":"nonceId","type":"uint256"}],"name":"totalSupply","outputs":[{"internalType":"uint256","name":"","type":"uint256"}],"stateMutability":"view","type":"function"},{"inputs":[{"internalType":"address","name":"_from","type":"address"},{"internalType":"address","name":"_to","type":"address"},{"components":[{"internalType":"uint256","name":"classId","type":"uint256"},{"internalType":"uint256","name":"nonceId","type":"uint256"},{"internalType":"uint256","name":"amount","type":"uint256"}],"internalType":"struct IERC3475.Transaction[]","name":"_transactions","type":"tuple[]"}],"name":"transferAllowanceFrom","outputs":[],"stateMutability":"nonpayable","type":"function"},{"inputs":[{"internalType":"address","name":"_from","type":"address"},{"internalType":"address","name":"_to","type":"address"},{"components":[{"internalType":"uint256","name":"classId","type":"uint256"},{"internalType":"uint256","name":"nonceId","type":"uint256"},{"internalType":"uint256","name":"amount","type":"uint256"}],"internalType":"struct IERC3475.Transaction[]","name":"_transactions","type":"tuple[]"}],"name":"transferFrom","outputs":[],"stateMutability":"nonpayable","type":"function"}],"evm":{"bytecode":{"linkReferences":{},"object":"60806040523480156200001157600080fd5b506040518060400160405280600681526020017f73796d626f6c00000000000000000000000000000000000000000000000000008152506002600080815260200190815260200160002060000190816200006c919062000c83565b506040518060400160405280600681526020017f737472696e670000000000000000000000000000000000000000000000000000815250600260008081526020019081526020016000206001019081620000c7919062000c83565b506040518060400160405280601381526020017f73796d626f6c206f662074686520636c6173730000000000000000000000000081525060026000808152602001908152602001600020600201908162000122919062000c83565b506040518060400160405280600b81526020017f444249542046697820364d000000000000000000000000000000000000000000815250600160008081526020019081526020016000206000016000808152602001908152602001600020600001908162000191919062000c83565b506040518060400160405280600681526020017f73796d626f6c000000000000000000000000000000000000000000000000000081525060026000600181526020019081526020016000206000019081620001ed919062000c83565b506040518060400160405280600681526020017f737472696e6700000000000000000000000000000000000000000000000000008152506002600060018152602001908152602001600020600101908162000249919062000c83565b506040518060400160405280601381526020017f73796d626f6c206f662074686520636c6173730000000000000000000000000081525060026000600181526020019081526020016000206002019081620002a5919062000c83565b506040518060400160405280601b81526020017f4442495420466978207465737420496e7374616e74616e656f7573000000000081525060016000600181526020019081526020016000206000016000808152602001908152602001600020600001908162000315919062000c83565b506040518060400160405280600681526020017f706572696f6400000000000000000000000000000000000000000000000000008152506002600060058152602001908152602001600020600001908162000371919062000c83565b506040518060400160405280600381526020017f696e74000000000000000000000000000000000000000000000000000000000081525060026000600581526020019081526020016000206001019081620003cd919062000c83565b506040518060600160405280602a815260200162003edb602a9139600260006005815260200190815260200160002060020190816200040d919062000c83565b50600a60016000808152602001908152602001600020600001600060058152602001908152602001600020600101819055506001806000600181526020019081526020016000206000016000600581526020019081526020016000206001018190555062ed4e004262000481919062000d99565b60016000808152602001908152602001600020600201600080815260200190815260200160002060000160008081526020019081526020016000206001018190555062ee9f8042620004d4919062000d99565b6001600080815260200190815260200160002060020160006001815260200190815260200160002060000160008081526020019081526020016000206001018190555062eff1004262000528919062000d99565b600160008081526020019081526020016000206002016000600281526020019081526020016000206000016000808152602001908152602001600020600101819055506001426200057a919062000d99565b60016000600181526020019081526020016000206002016000808152602001908152602001600020600001600080815260200190815260200160002060010181905550600242620005cc919062000d99565b60016000600181526020019081526020016000206002016000600181526020019081526020016000206000016000808152602001908152602001600020600101819055506003426200061f919062000d99565b60016000600181526020019081526020016000206002016000600281526020019081526020016000206000016000808152602001908152602001600020600101819055506040518060400160405280600881526020017f6d617475726974790000000000000000000000000000000000000000000000008152506001600080815260200190815260200160002060010160008081526020019081526020016000206000019081620006d1919062000c83565b506040518060400160405280600381526020017f696e740000000000000000000000000000000000000000000000000000000000815250600160008081526020019081526020016000206001016000808152602001908152602001600020600101908162000740919062000c83565b506040518060400160405280601881526020017f6d61747572697479206461746520696e20696e746567657200000000000000008152506001600080815260200190815260200160002060010160008081526020019081526020016000206002019081620007af919062000c83565b506040518060400160405280600881526020017f6d617475726974790000000000000000000000000000000000000000000000008152506001600060018152602001908152602001600020600101600080815260200190815260200160002060000190816200081f919062000c83565b506040518060400160405280600381526020017f696e74000000000000000000000000000000000000000000000000000000000081525060016000808152602001908152602001600020600101600080815260200190815260200160002060010190816200088e919062000c83565b506040518060400160405280601881526020017f6d61747572697479206461746520696e20696e74656765720000000000000000815250600160006001815260200190815260200160002060010160008081526020019081526020016000206002019081620008fe919062000c83565b5060018060008081526020019081526020016000206002016000808152602001908152602001600020600001600080815260200190815260200160002060020160146101000a81548160ff0219169083151502179055506001806000808152602001908152602001600020600201600060018152602001908152602001600020600001600080815260200190815260200160002060020160146101000a81548160ff0219169083151502179055506001806000808152602001908152602001600020600201600060028152602001908152602001600020600001600080815260200190815260200160002060020160146101000a81548160ff02191690831515021790555062000dd4565b600081519050919050565b7f4e487b7100000000000000000000000000000000000000000000000000000000600052604160045260246000fd5b7f4e487b7100000000000000000000000000000000000000000000000000000000600052602260045260246000fd5b6000600282049050600182168062000a8b57607f821691505b60208210810362000aa15762000aa062000a43565b5b50919050565b60008190508160005260206000209050919050565b60006020601f8301049050919050565b600082821b905092915050565b60006008830262000b0b7fffffffffffffffffffffffffffffffffffffffffffffffffffffffffffffffff8262000acc565b62000b17868362000acc565b95508019841693508086168417925050509392505050565b6000819050919050565b6000819050919050565b600062000b6462000b5e62000b588462000b2f565b62000b39565b62000b2f565b9050919050565b6000819050919050565b62000b808362000b43565b62000b9862000b8f8262000b6b565b84845462000ad9565b825550505050565b600090565b62000baf62000ba0565b62000bbc81848462000b75565b505050565b5b8181101562000be45762000bd860008262000ba5565b60018101905062000bc2565b5050565b601f82111562000c335762000bfd8162000aa7565b62000c088462000abc565b8101602085101562000c18578190505b62000c3062000c278562000abc565b83018262000bc1565b50505b505050565b600082821c905092915050565b600062000c586000198460080262000c38565b1980831691505092915050565b600062000c73838362000c45565b9150826002028217905092915050565b62000c8e8262000a09565b67ffffffffffffffff81111562000caa5762000ca962000a14565b5b62000cb6825462000a72565b62000cc382828562000be8565b600060209050601f83116001811462000cfb576000841562000ce6578287015190505b62000cf2858262000c65565b86555062000d62565b601f19841662000d0b8662000aa7565b60005b8281101562000d355784890151825560018201915060208501945060208101905062000d0e565b8683101562000d55578489015162000d51601f89168262000c45565b8355505b6001600288020188555050505b505050505050565b7f4e487b7100000000000000000000000000000000000000000000000000000000600052601160045260246000fd5b600062000da68262000b2f565b915062000db38362000b2f565b925082820190508082111562000dce5762000dcd62000d6a565b5b92915050565b6130f78062000de46000396000f3fe608060405234801561001057600080fd5b50600436106101215760003560e01c8063693f5548116100ad578063bc3c19f711610071578063bc3c19f71461034f578063c2458d6b1461037f578063c7da92e1146103af578063ccea7b86146103df578063f32736961461040f57610121565b8063693f55481461029b5780637228cfaf146102cb57806388dad954146102e75780639d3fed3814610303578063b15edbe51461031f57610121565b80632d760d57116100f45780632d760d57146101be5780633cf3a604146101ee578063443b63b91461021e5780634bb95aa21461024e578063572e5ef21461026a57610121565b8063029ba4eb146101265780630d345f4f1461015657806319ab3939146101725780631fa03a2b1461018e575b600080fd5b610140600480360381019061013b919061212b565b61042b565b60405161014d9190612259565b60405180910390f35b610170600480360381019061016b919061233e565b610623565b005b61018c6004803603810190610187919061233e565b6107c7565b005b6101a860048036038101906101a3919061239e565b6108ec565b6040516101b591906123f9565b60405180910390f35b6101d860048036038101906101d39190612414565b61097f565b6040516101e59190612476565b60405180910390f35b61020860048036038101906102039190612491565b610a60565b6040516102159190612259565b60405180910390f35b610238600480360381019061023391906124be565b610c43565b6040516102459190612476565b60405180910390f35b61026860048036038101906102639190612551565b610cf4565b005b610284600480360381019061027f919061212b565b610df0565b604051610292929190612591565b60405180910390f35b6102b560048036038101906102b091906125ba565b610eb9565b6040516102c2919061269d565b60405180910390f35b6102e560048036038101906102e0919061233e565b61101d565b005b61030160048036038101906102fc91906126bf565b611141565b005b61031d6004803603810190610318919061233e565b61136d565b005b6103396004803603810190610334919061212b565b61151d565b6040516103469190612476565b60405180910390f35b6103696004803603810190610364919061212b565b611552565b6040516103769190612476565b60405180910390f35b6103996004803603810190610394919061212b565b611587565b6040516103a69190612476565b60405180910390f35b6103c960048036038101906103c4919061212b565b6115c3565b6040516103d6919061269d565b60405180910390f35b6103f960048036038101906103f4919061212b565b611712565b6040516104069190612476565b60405180910390f35b610429600480360381019061042491906126bf565b611747565b005b61043361208a565b60016000848152602001908152602001600020600101600083815260200190815260200160002060405180606001604052908160008201805461047590612762565b80601f01602080910402602001604051908101604052809291908181526020018280546104a190612762565b80156104ee5780601f106104c3576101008083540402835291602001916104ee565b820191906000526020600020905b8154815290600101906020018083116104d157829003601f168201915b5050505050815260200160018201805461050790612762565b80601f016020809104026020016040519081016040528092919081815260200182805461053390612762565b80156105805780601f1061055557610100808354040283529160200191610580565b820191906000526020600020905b81548152906001019060200180831161056357829003601f168201915b5050505050815260200160028201805461059990612762565b80601f01602080910402602001604051908101604052809291908181526020018280546105c590612762565b80156106125780601f106105e757610100808354040283529160200191610612565b820191906000526020600020905b8154815290600101906020018083116105f557829003601f168201915b505050505081525050905092915050565b600073ffffffffffffffffffffffffffffffffffffffff168373ffffffffffffffffffffffffffffffffffffffff1603610692576040517f08c379a000000000000000000000000000000000000000000000000000000000815260040161068990612816565b60405180910390fd5b8273ffffffffffffffffffffffffffffffffffffffff163373ffffffffffffffffffffffffffffffffffffffff1614806106d257506106d183336108ec565b5b610711576040517f08c379a0000000000000000000000000000000000000000000000000000000008152600401610708906128a8565b60405180910390fd5b600082829050905060005b81811015610759576107468585858481811061073b5761073a6128c8565b5b905060600201611997565b808061075190612926565b91505061071c565b508373ffffffffffffffffffffffffffffffffffffffff163373ffffffffffffffffffffffffffffffffffffffff167f854463ea9c50bdbcc2ee7d49731da876b9a8a76ac599ea54b87fc3bf49dd4bbc85856040516107b9929190612a87565b60405180910390a350505050565b600082829050905060005b8181101561087e57600073ffffffffffffffffffffffffffffffffffffffff168573ffffffffffffffffffffffffffffffffffffffff1603610849576040517f08c379a000000000000000000000000000000000000000000000000000000000815260040161084090612b1d565b60405180910390fd5b61086b858585848181106108605761085f6128c8565b5b905060600201611af1565b808061087690612926565b9150506107d2565b508373ffffffffffffffffffffffffffffffffffffffff163373ffffffffffffffffffffffffffffffffffffffff167f4623e64c229a38d0d39f345a5636f4aaad36652b7a59cc3cfee2b2e2cf37bdf385856040516108de929190612a87565b60405180910390a350505050565b60008060008473ffffffffffffffffffffffffffffffffffffffff1673ffffffffffffffffffffffffffffffffffffffff16815260200190815260200160002060008373ffffffffffffffffffffffffffffffffffffffff1673ffffffffffffffffffffffffffffffffffffffff16815260200190815260200160002060009054906101000a900460ff16905092915050565b60008073ffffffffffffffffffffffffffffffffffffffff168473ffffffffffffffffffffffffffffffffffffffff16036109ef576040517f08c379a00000000000000000000000000000000000000000000000000000000081526004016109e690612baf565b60405180910390fd5b60016000848152602001908152602001600020600201600083815260200190815260200160002060010160008573ffffffffffffffffffffffffffffffffffffffff1673ffffffffffffffffffffffffffffffffffffffff1681526020019081526020016000205490509392505050565b610a6861208a565b60026000838152602001908152602001600020604051806060016040529081600082018054610a9690612762565b80601f0160208091040260200160405190810160405280929190818152602001828054610ac290612762565b8015610b0f5780601f10610ae457610100808354040283529160200191610b0f565b820191906000526020600020905b815481529060010190602001808311610af257829003601f168201915b50505050508152602001600182018054610b2890612762565b80601f0160208091040260200160405190810160405280929190818152602001828054610b5490612762565b8015610ba15780601f10610b7657610100808354040283529160200191610ba1565b820191906000526020600020905b815481529060010190602001808311610b8457829003601f168201915b50505050508152602001600282018054610bba90612762565b80601f0160208091040260200160405190810160405280929190818152602001828054610be690612762565b8015610c335780601f10610c0857610100808354040283529160200191610c33565b820191906000526020600020905b815481529060010190602001808311610c1657829003601f168201915b5050505050815250509050919050565b600060016000848152602001908152602001600020600201600083815260200190815260200160002060020160008673ffffffffffffffffffffffffffffffffffffffff1673ffffffffffffffffffffffffffffffffffffffff16815260200190815260200160002060008573ffffffffffffffffffffffffffffffffffffffff1673ffffffffffffffffffffffffffffffffffffffff168152602001908152602001600020549050949350505050565b806000803373ffffffffffffffffffffffffffffffffffffffff1673ffffffffffffffffffffffffffffffffffffffff16815260200190815260200160002060008473ffffffffffffffffffffffffffffffffffffffff1673ffffffffffffffffffffffffffffffffffffffff16815260200190815260200160002060006101000a81548160ff0219169083151502179055508173ffffffffffffffffffffffffffffffffffffffff163373ffffffffffffffffffffffffffffffffffffffff167f3a950f10bb6df353a4ab85913de7c26461edd1b6250912c3ddcbe92b9164358483604051610de491906123f9565b60405180910390a35050565b6000806000600160008681526020019081526020016000206002016000858152602001908152602001600020600001600080815260200190815260200160002060010154905060006001600087815260200190815260200160002060020160008681526020019081526020016000206000016000600581526020019081526020016000206001015482610e839190612bcf565b90508142610e919190612c03565b9350804210610ea1576000610eae565b4281610ead9190612c03565b5b925050509250929050565b610ec16120ab565b6001600085815260200190815260200160002060020160008481526020019081526020016000206000016000838152602001908152602001600020604051806080016040529081600082018054610f1790612762565b80601f0160208091040260200160405190810160405280929190818152602001828054610f4390612762565b8015610f905780601f10610f6557610100808354040283529160200191610f90565b820191906000526020600020905b815481529060010190602001808311610f7357829003601f168201915b50505050508152602001600182015481526020016002820160009054906101000a900473ffffffffffffffffffffffffffffffffffffffff1673ffffffffffffffffffffffffffffffffffffffff1673ffffffffffffffffffffffffffffffffffffffff1681526020016002820160149054906101000a900460ff16151515158152505090509392505050565b60005b8282905081101561113b5782828281811061103e5761103d6128c8565b5b905060600201604001356001600085858581811061105f5761105e6128c8565b5b905060600201600001358152602001908152602001600020600201600085858581811061108f5761108e6128c8565b5b90506060020160200135815260200190815260200160002060020160003373ffffffffffffffffffffffffffffffffffffffff1673ffffffffffffffffffffffffffffffffffffffff16815260200190815260200160002060008673ffffffffffffffffffffffffffffffffffffffff1673ffffffffffffffffffffffffffffffffffffffff16815260200190815260200160002081905550808061113390612926565b915050611020565b50505050565b600073ffffffffffffffffffffffffffffffffffffffff168473ffffffffffffffffffffffffffffffffffffffff16036111b0576040517f08c379a00000000000000000000000000000000000000000000000000000000081526004016111a790612ca9565b60405180910390fd5b600073ffffffffffffffffffffffffffffffffffffffff168373ffffffffffffffffffffffffffffffffffffffff160361121f576040517f08c379a000000000000000000000000000000000000000000000000000000000815260040161121690612d15565b60405180910390fd5b8373ffffffffffffffffffffffffffffffffffffffff163373ffffffffffffffffffffffffffffffffffffffff16148061125f575061125e84336108ec565b5b61129e576040517f08c379a000000000000000000000000000000000000000000000000000000000815260040161129590612da7565b60405180910390fd5b600082829050905060005b818110156112e7576112d486868686858181106112c9576112c86128c8565b5b905060600201611ba4565b80806112df90612926565b9150506112a9565b508373ffffffffffffffffffffffffffffffffffffffff168573ffffffffffffffffffffffffffffffffffffffff163373ffffffffffffffffffffffffffffffffffffffff167f75fabf31534d6cddc003931b8cffc1effeea3ee3125535e609d386c8bf9ebdc4868660405161135e929190612a87565b60405180910390a45050505050565b600073ffffffffffffffffffffffffffffffffffffffff168373ffffffffffffffffffffffffffffffffffffffff16036113dc576040517f08c379a00000000000000000000000000000000000000000000000000000000081526004016113d390612e39565b60405180910390fd5b600082829050905060005b818110156114af576000611433858584818110611407576114066128c8565b5b90506060020160000135868685818110611424576114236128c8565b5b90506060020160200135610df0565b91505060008114611479576040517f08c379a000000000000000000000000000000000000000000000000000000000815260040161147090612ea5565b60405180910390fd5b61149b868686858181106114905761148f6128c8565b5b905060600201611d1d565b5080806114a790612926565b9150506113e7565b508373ffffffffffffffffffffffffffffffffffffffff163373ffffffffffffffffffffffffffffffffffffffff167f9f652ddea6a7fd228f90e8d46f86b0e86d8299f8ca1415c7d6ab58bbe1cd632c858560405161150f929190612a87565b60405180910390a350505050565b600060016000848152602001908152602001600020600201600083815260200190815260200160002060030154905092915050565b600060016000848152602001908152602001600020600201600083815260200190815260200160002060040154905092915050565b60006115938383611712565b61159d8484611552565b6115a7858561151d565b6115b19190612bcf565b6115bb9190612bcf565b905092915050565b6115cb6120ab565b60016000848152602001908152602001600020600001600083815260200190815260200160002060405180608001604052908160008201805461160d90612762565b80601f016020809104026020016040519081016040528092919081815260200182805461163990612762565b80156116865780601f1061165b57610100808354040283529160200191611686565b820191906000526020600020905b81548152906001019060200180831161166957829003601f168201915b50505050508152602001600182015481526020016002820160009054906101000a900473ffffffffffffffffffffffffffffffffffffffff1673ffffffffffffffffffffffffffffffffffffffff1673ffffffffffffffffffffffffffffffffffffffff1681526020016002820160149054906101000a900460ff161515151581525050905092915050565b600060016000848152602001908152602001600020600201600083815260200190815260200160002060050154905092915050565b600073ffffffffffffffffffffffffffffffffffffffff168473ffffffffffffffffffffffffffffffffffffffff16036117b6576040517f08c379a00000000000000000000000000000000000000000000000000000000081526004016117ad90612f37565b60405180910390fd5b600073ffffffffffffffffffffffffffffffffffffffff168373ffffffffffffffffffffffffffffffffffffffff1603611825576040517f08c379a000000000000000000000000000000000000000000000000000000000815260040161181c90612fa3565b60405180910390fd5b600082829050905060005b818110156119115761187c86338686858181106118505761184f6128c8565b5b9050606002016000013587878681811061186d5761186c6128c8565b5b90506060020160200135610c43565b84848381811061188f5761188e6128c8565b5b9050606002016040013511156118da576040517f08c379a00000000000000000000000000000000000000000000000000000000081526004016118d190612da7565b60405180910390fd5b6118fe3387878787868181106118f3576118f26128c8565b5b905060600201611e77565b808061190990612926565b915050611830565b508373ffffffffffffffffffffffffffffffffffffffff168573ffffffffffffffffffffffffffffffffffffffff163373ffffffffffffffffffffffffffffffffffffffff167f75fabf31534d6cddc003931b8cffc1effeea3ee3125535e609d386c8bf9ebdc48686604051611988929190612a87565b60405180910390a45050505050565b60006001600083600001358152602001908152602001600020600201600083602001358152602001908152602001600020905081604001358160010160008573ffffffffffffffffffffffffffffffffffffffff1673ffffffffffffffffffffffffffffffffffffffff168152602001908152602001600020541015611a52576040517f08c379a0000000000000000000000000000000000000000000000000000000008152600401611a4990613035565b60405180910390fd5b81604001358160010160008573ffffffffffffffffffffffffffffffffffffffff1673ffffffffffffffffffffffffffffffffffffffff1681526020019081526020016000206000828254611aa79190612c03565b925050819055508160400135816003016000828254611ac69190612c03565b925050819055508160400135816004016000828254611ae59190612bcf565b92505081905550505050565b60006001600083600001358152602001908152602001600020600201600083602001358152602001908152602001600020905081604001358160010160008573ffffffffffffffffffffffffffffffffffffffff1673ffffffffffffffffffffffffffffffffffffffff1681526020019081526020016000206000828254611b799190612bcf565b925050819055508160400135816003016000828254611b989190612bcf565b92505081905550505050565b60006001600083600001358152602001908152602001600020600201600083602001358152602001908152602001600020905081604001358160010160008673ffffffffffffffffffffffffffffffffffffffff1673ffffffffffffffffffffffffffffffffffffffff168152602001908152602001600020541015611c5f576040517f08c379a0000000000000000000000000000000000000000000000000000000008152600401611c5690613035565b60405180910390fd5b81604001358160010160008673ffffffffffffffffffffffffffffffffffffffff1673ffffffffffffffffffffffffffffffffffffffff1681526020019081526020016000206000828254611cb49190612c03565b9250508190555081604001358160010160008573ffffffffffffffffffffffffffffffffffffffff1673ffffffffffffffffffffffffffffffffffffffff1681526020019081526020016000206000828254611d109190612bcf565b9250508190555050505050565b60006001600083600001358152602001908152602001600020600201600083602001358152602001908152602001600020905081604001358160010160008573ffffffffffffffffffffffffffffffffffffffff1673ffffffffffffffffffffffffffffffffffffffff168152602001908152602001600020541015611dd8576040517f08c379a0000000000000000000000000000000000000000000000000000000008152600401611dcf90613035565b60405180910390fd5b81604001358160010160008573ffffffffffffffffffffffffffffffffffffffff1673ffffffffffffffffffffffffffffffffffffffff1681526020019081526020016000206000828254611e2d9190612c03565b925050819055508160400135816003016000828254611e4c9190612c03565b925050819055508160400135816005016000828254611e6b9190612bcf565b92505081905550505050565b60006001600083600001358152602001908152602001600020600201600083602001358152602001908152602001600020905081604001358160010160008673ffffffffffffffffffffffffffffffffffffffff1673ffffffffffffffffffffffffffffffffffffffff168152602001908152602001600020541015611f32576040517f08c379a0000000000000000000000000000000000000000000000000000000008152600401611f29906130a1565b60405180910390fd5b81604001358160020160008673ffffffffffffffffffffffffffffffffffffffff1673ffffffffffffffffffffffffffffffffffffffff16815260200190815260200160002060008773ffffffffffffffffffffffffffffffffffffffff1673ffffffffffffffffffffffffffffffffffffffff1681526020019081526020016000206000828254611fc49190612c03565b9250508190555081604001358160010160008673ffffffffffffffffffffffffffffffffffffffff1673ffffffffffffffffffffffffffffffffffffffff16815260200190815260200160002060008282546120209190612c03565b9250508190555081604001358160010160008573ffffffffffffffffffffffffffffffffffffffff1673ffffffffffffffffffffffffffffffffffffffff168152602001908152602001600020600082825461207c9190612bcf565b925050819055505050505050565b60405180606001604052806060815260200160608152602001606081525090565b60405180608001604052806060815260200160008152602001600073ffffffffffffffffffffffffffffffffffffffff1681526020016000151581525090565b600080fd5b600080fd5b6000819050919050565b612108816120f5565b811461211357600080fd5b50565b600081359050612125816120ff565b92915050565b60008060408385031215612142576121416120eb565b5b600061215085828601612116565b925050602061216185828601612116565b9150509250929050565b600081519050919050565b600082825260208201905092915050565b60005b838110156121a557808201518184015260208101905061218a565b60008484015250505050565b6000601f19601f8301169050919050565b60006121cd8261216b565b6121d78185612176565b93506121e7818560208601612187565b6121f0816121b1565b840191505092915050565b6000606083016000830151848203600086015261221882826121c2565b9150506020830151848203602086015261223282826121c2565b9150506040830151848203604086015261224c82826121c2565b9150508091505092915050565b6000602082019050818103600083015261227381846121fb565b905092915050565b600073ffffffffffffffffffffffffffffffffffffffff82169050919050565b60006122a68261227b565b9050919050565b6122b68161229b565b81146122c157600080fd5b50565b6000813590506122d3816122ad565b92915050565b600080fd5b600080fd5b600080fd5b60008083601f8401126122fe576122fd6122d9565b5b8235905067ffffffffffffffff81111561231b5761231a6122de565b5b602083019150836060820283011115612337576123366122e3565b5b9250929050565b600080600060408486031215612357576123566120eb565b5b6000612365868287016122c4565b935050602084013567ffffffffffffffff811115612386576123856120f0565b5b612392868287016122e8565b92509250509250925092565b600080604083850312156123b5576123b46120eb565b5b60006123c3858286016122c4565b92505060206123d4858286016122c4565b9150509250929050565b60008115159050919050565b6123f3816123de565b82525050565b600060208201905061240e60008301846123ea565b92915050565b60008060006060848603121561242d5761242c6120eb565b5b600061243b868287016122c4565b935050602061244c86828701612116565b925050604061245d86828701612116565b9150509250925092565b612470816120f5565b82525050565b600060208201905061248b6000830184612467565b92915050565b6000602082840312156124a7576124a66120eb565b5b60006124b584828501612116565b91505092915050565b600080600080608085870312156124d8576124d76120eb565b5b60006124e6878288016122c4565b94505060206124f7878288016122c4565b935050604061250887828801612116565b925050606061251987828801612116565b91505092959194509250565b61252e816123de565b811461253957600080fd5b50565b60008135905061254b81612525565b92915050565b60008060408385031215612568576125676120eb565b5b6000612576858286016122c4565b92505060206125878582860161253c565b9150509250929050565b60006040820190506125a66000830185612467565b6125b36020830184612467565b9392505050565b6000806000606084860312156125d3576125d26120eb565b5b60006125e186828701612116565b93505060206125f286828701612116565b925050604061260386828701612116565b9150509250925092565b612616816120f5565b82525050565b6126258161229b565b82525050565b612634816123de565b82525050565b6000608083016000830151848203600086015261265782826121c2565b915050602083015161266c602086018261260d565b50604083015161267f604086018261261c565b506060830151612692606086018261262b565b508091505092915050565b600060208201905081810360008301526126b7818461263a565b905092915050565b600080600080606085870312156126d9576126d86120eb565b5b60006126e7878288016122c4565b94505060206126f8878288016122c4565b935050604085013567ffffffffffffffff811115612719576127186120f0565b5b612725878288016122e8565b925092505092959194509250565b7f4e487b7100000000000000000000000000000000000000000000000000000000600052602260045260246000fd5b6000600282049050600182168061277a57607f821691505b60208210810361278d5761278c612733565b5b50919050565b600082825260208201905092915050565b7f455243333437353a2063616e2774206275726e2066726f6d20746865207a657260008201527f6f20616464726573730000000000000000000000000000000000000000000000602082015250565b6000612800602983612793565b915061280b826127a4565b604082019050919050565b6000602082019050818103600083015261282f816127f3565b9050919050565b7f455243333437353a2063616c6c65722d6e6f742d6f776e65722d6f722d61707060008201527f726f766564000000000000000000000000000000000000000000000000000000602082015250565b6000612892602583612793565b915061289d82612836565b604082019050919050565b600060208201905081810360008301526128c181612885565b9050919050565b7f4e487b7100000000000000000000000000000000000000000000000000000000600052603260045260246000fd5b7f4e487b7100000000000000000000000000000000000000000000000000000000600052601160045260246000fd5b6000612931826120f5565b91507fffffffffffffffffffffffffffffffffffffffffffffffffffffffffffffffff8203612963576129626128f7565b5b600182019050919050565b600082825260208201905092915050565b6000819050919050565b60006129986020840184612116565b905092915050565b606082016129b16000830183612989565b6129be600085018261260d565b506129cc6020830183612989565b6129d9602085018261260d565b506129e76040830183612989565b6129f4604085018261260d565b50505050565b6000612a0683836129a0565b60608301905092915050565b600082905092915050565b6000606082019050919050565b6000612a36838561296e565b9350612a418261297f565b8060005b85811015612a7a57612a578284612a12565b612a6188826129fa565b9750612a6c83612a1d565b925050600181019050612a45565b5085925050509392505050565b60006020820190508181036000830152612aa2818486612a2a565b90509392505050565b7f455243333437353a2063616e277420697373756520746f20746865207a65726f60008201527f2061646472657373000000000000000000000000000000000000000000000000602082015250565b6000612b07602883612793565b9150612b1282612aab565b604082019050919050565b60006020820190508181036000830152612b3681612afa565b9050919050565b7f455243333437353a2062616c616e636520717565727920666f7220746865207a60008201527f65726f2061646472657373000000000000000000000000000000000000000000602082015250565b6000612b99602b83612793565b9150612ba482612b3d565b604082019050919050565b60006020820190508181036000830152612bc881612b8c565b9050919050565b6000612bda826120f5565b9150612be5836120f5565b9250828201905080821115612bfd57612bfc6128f7565b5b92915050565b6000612c0e826120f5565b9150612c19836120f5565b9250828203905081811115612c3157612c306128f7565b5b92915050565b7f455243333437353a2063616e2774207472616e736665722066726f6d2074686560008201527f207a65726f206164647265737300000000000000000000000000000000000000602082015250565b6000612c93602d83612793565b9150612c9e82612c37565b604082019050919050565b60006020820190508181036000830152612cc281612c86565b9050919050565b7f455243333437353a757365206275726e282920696e7374656164000000000000600082015250565b6000612cff601a83612793565b9150612d0a82612cc9565b602082019050919050565b60006020820190508181036000830152612d2e81612cf2565b9050919050565b7f455243333437353a63616c6c65722d6e6f742d6f776e65722d6f722d6170707260008201527f6f76656400000000000000000000000000000000000000000000000000000000602082015250565b6000612d91602483612793565b9150612d9c82612d35565b604082019050919050565b60006020820190508181036000830152612dc081612d84565b9050919050565b7f455243333437353a2063616e27742072656465656d2066726f6d20746865207a60008201527f65726f2061646472657373000000000000000000000000000000000000000000602082015250565b6000612e23602b83612793565b9150612e2e82612dc7565b604082019050919050565b60006020820190508181036000830152612e5281612e16565b9050919050565b7f45524333343735204572726f723a204e6f742072656465656d61626c65000000600082015250565b6000612e8f601d83612793565b9150612e9a82612e59565b602082019050919050565b60006020820190508181036000830152612ebe81612e82565b9050919050565b7f455243333437353a2063616e2774207472616e7366657220616c6c6f7765642060008201527f616d742066726f6d207a65726f20616464726573730000000000000000000000602082015250565b6000612f21603583612793565b9150612f2c82612ec5565b604082019050919050565b60006020820190508181036000830152612f5081612f14565b9050919050565b7f455243333437353a20757365206275726e282920696e73746561640000000000600082015250565b6000612f8d601b83612793565b9150612f9882612f57565b602082019050919050565b60006020820190508181036000830152612fbc81612f80565b9050919050565b7f455243333437353a206e6f7420656e6f75676820626f6e6420746f207472616e60008201527f7366657200000000000000000000000000000000000000000000000000000000602082015250565b600061301f602483612793565b915061302a82612fc3565b604082019050919050565b6000602082019050818103600083015261304e81613012565b9050919050565b7f455243333437353a206e6f7420616c6c6f77656420616d6f756e740000000000600082015250565b600061308b601b83612793565b915061309682613055565b602082019050919050565b600060208201905081810360008301526130ba8161307e565b905091905056fea26469706673582212205d05493249a4fa97f3e05123aafe60c34b104c2057df2c276b07cb5c040e720164736f6c6343000811003364657461696c732061626f75742069737375616e636520616e6420726564656d7074696f6e2074696d65","opcodes":"PUSH1 0x80 PUSH1 0x40 MSTORE CALLVALUE DUP1 ISZERO PUSH3 0x11 JUMPI PUSH1 0x0 DUP1 REVERT JUMPDEST POP PUSH1 0x40 MLOAD DUP1 PUSH1 0x40 ADD PUSH1 0x40 MSTORE DUP1 PUSH1 0x6 DUP2 MSTORE PUSH1 0x20 ADD PUSH32 0x73796D626F6C0000000000000000000000000000000000000000000000000000 DUP2 MSTORE POP PUSH1 0x2 PUSH1 0x0 DUP1 DUP2 MSTORE PUSH1 0x20 ADD SWAP1 DUP2 MSTORE PUSH1 0x20 ADD PUSH1 0x0 KECCAK256 PUSH1 0x0 ADD SWAP1 DUP2 PUSH3 0x6C SWAP2 SWAP1 PUSH3 0xC83 JUMP JUMPDEST POP PUSH1 0x40 MLOAD DUP1 PUSH1 0x40 ADD PUSH1 0x40 MSTORE DUP1 PUSH1 0x6 DUP2 MSTORE PUSH1 0x20 ADD PUSH32 0x737472696E670000000000000000000000000000000000000000000000000000 DUP2 MSTORE POP PUSH1 0x2 PUSH1 0x0 DUP1 DUP2 MSTORE PUSH1 0x20 ADD SWAP1 DUP2 MSTORE PUSH1 0x20 ADD PUSH1 0x0 KECCAK256 PUSH1 0x1 ADD SWAP1 DUP2 PUSH3 0xC7 SWAP2 SWAP1 PUSH3 0xC83 JUMP JUMPDEST POP PUSH1 0x40 MLOAD DUP1 PUSH1 0x40 ADD PUSH1 0x40 MSTORE DUP1 PUSH1 0x13 DUP2 MSTORE PUSH1 0x20 ADD PUSH32 0x73796D626F6C206F662074686520636C61737300000000000000000000000000 DUP2 MSTORE POP PUSH1 0x2 PUSH1 0x0 DUP1 DUP2 MSTORE PUSH1 0x20 ADD SWAP1 DUP2 MSTORE PUSH1 0x20 ADD PUSH1 0x0 KECCAK256 PUSH1 0x2 ADD SWAP1 DUP2 PUSH3 0x122 SWAP2 SWAP1 PUSH3 0xC83 JUMP JUMPDEST POP PUSH1 0x40 MLOAD DUP1 PUSH1 0x40 ADD PUSH1 0x40 MSTORE DUP1 PUSH1 0xB DUP2 MSTORE PUSH1 0x20 ADD PUSH32 0x444249542046697820364D000000000000000000000000000000000000000000 DUP2 MSTORE POP PUSH1 0x1 PUSH1 0x0 DUP1 DUP2 MSTORE PUSH1 0x20 ADD SWAP1 DUP2 MSTORE PUSH1 0x20 ADD PUSH1 0x0 KECCAK256 PUSH1 0x0 ADD PUSH1 0x0 DUP1 DUP2 MSTORE PUSH1 0x20 ADD SWAP1 DUP2 MSTORE PUSH1 0x20 ADD PUSH1 0x0 KECCAK256 PUSH1 0x0 ADD SWAP1 DUP2 PUSH3 0x191 SWAP2 SWAP1 PUSH3 0xC83 JUMP JUMPDEST POP PUSH1 0x40 MLOAD DUP1 PUSH1 0x40 ADD PUSH1 0x40 MSTORE DUP1 PUSH1 0x6 DUP2 MSTORE PUSH1 0x20 ADD PUSH32 0x73796D626F6C0000000000000000000000000000000000000000000000000000 DUP2 MSTORE POP PUSH1 0x2 PUSH1 0x0 PUSH1 0x1 DUP2 MSTORE PUSH1 0x20 ADD SWAP1 DUP2 MSTORE PUSH1 0x20 ADD PUSH1 0x0 KECCAK256 PUSH1 0x0 ADD SWAP1 DUP2 PUSH3 0x1ED SWAP2 SWAP1 PUSH3 0xC83 JUMP JUMPDEST POP PUSH1 0x40 MLOAD DUP1 PUSH1 0x40 ADD PUSH1 0x40 MSTORE DUP1 PUSH1 0x6 DUP2 MSTORE PUSH1 0x20 ADD PUSH32 0x737472696E670000000000000000000000000000000000000000000000000000 DUP2 MSTORE POP PUSH1 0x2 PUSH1 0x0 PUSH1 0x1 DUP2 MSTORE PUSH1 0x20 ADD SWAP1 DUP2 MSTORE PUSH1 0x20 ADD PUSH1 0x0 KECCAK256 PUSH1 0x1 ADD SWAP1 DUP2 PUSH3 0x249 SWAP2 SWAP1 PUSH3 0xC83 JUMP JUMPDEST POP PUSH1 0x40 MLOAD DUP1 PUSH1 0x40 ADD PUSH1 0x40 MSTORE DUP1 PUSH1 0x13 DUP2 MSTORE PUSH1 0x20 ADD PUSH32 0x73796D626F6C206F662074686520636C61737300000000000000000000000000 DUP2 MSTORE POP PUSH1 0x2 PUSH1 0x0 PUSH1 0x1 DUP2 MSTORE PUSH1 0x20 ADD SWAP1 DUP2 MSTORE PUSH1 0x20 ADD PUSH1 0x0 KECCAK256 PUSH1 0x2 ADD SWAP1 DUP2 PUSH3 0x2A5 SWAP2 SWAP1 PUSH3 0xC83 JUMP JUMPDEST POP PUSH1 0x40 MLOAD DUP1 PUSH1 0x40 ADD PUSH1 0x40 MSTORE DUP1 PUSH1 0x1B DUP2 MSTORE PUSH1 0x20 ADD PUSH32 0x4442495420466978207465737420496E7374616E74616E656F75730000000000 DUP2 MSTORE POP PUSH1 0x1 PUSH1 0x0 PUSH1 0x1 DUP2 MSTORE PUSH1 0x20 ADD SWAP1 DUP2 MSTORE PUSH1 0x20 ADD PUSH1 0x0 KECCAK256 PUSH1 0x0 ADD PUSH1 0x0 DUP1 DUP2 MSTORE PUSH1 0x20 ADD SWAP1 DUP2 MSTORE PUSH1 0x20 ADD PUSH1 0x0 KECCAK256 PUSH1 0x0 ADD SWAP1 DUP2 PUSH3 0x315 SWAP2 SWAP1 PUSH3 0xC83 JUMP JUMPDEST POP PUSH1 0x40 MLOAD DUP1 PUSH1 0x40 ADD PUSH1 0x40 MSTORE DUP1 PUSH1 0x6 DUP2 MSTORE PUSH1 0x20 ADD PUSH32 0x706572696F640000000000000000000000000000000000000000000000000000 DUP2 MSTORE POP PUSH1 0x2 PUSH1 0x0 PUSH1 0x5 DUP2 MSTORE PUSH1 0x20 ADD SWAP1 DUP2 MSTORE PUSH1 0x20 ADD PUSH1 0x0 KECCAK256 PUSH1 0x0 ADD SWAP1 DUP2 PUSH3 0x371 SWAP2 SWAP1 PUSH3 0xC83 JUMP JUMPDEST POP PUSH1 0x40 MLOAD DUP1 PUSH1 0x40 ADD PUSH1 0x40 MSTORE DUP1 PUSH1 0x3 DUP2 MSTORE PUSH1 0x20 ADD PUSH32 0x696E740000000000000000000000000000000000000000000000000000000000 DUP2 MSTORE POP PUSH1 0x2 PUSH1 0x0 PUSH1 0x5 DUP2 MSTORE PUSH1 0x20 ADD SWAP1 DUP2 MSTORE PUSH1 0x20 ADD PUSH1 0x0 KECCAK256 PUSH1 0x1 ADD SWAP1 DUP2 PUSH3 0x3CD SWAP2 SWAP1 PUSH3 0xC83 JUMP JUMPDEST POP PUSH1 0x40 MLOAD DUP1 PUSH1 0x60 ADD PUSH1 0x40 MSTORE DUP1 PUSH1 0x2A DUP2 MSTORE PUSH1 0x20 ADD PUSH3 0x3EDB PUSH1 0x2A SWAP2 CODECOPY PUSH1 0x2 PUSH1 0x0 PUSH1 0x5 DUP2 MSTORE PUSH1 0x20 ADD SWAP1 DUP2 MSTORE PUSH1 0x20 ADD PUSH1 0x0 KECCAK256 PUSH1 0x2 ADD SWAP1 DUP2 PUSH3 0x40D SWAP2 SWAP1 PUSH3 0xC83 JUMP JUMPDEST POP PUSH1 0xA PUSH1 0x1 PUSH1 0x0 DUP1 DUP2 MSTORE PUSH1 0x20 ADD SWAP1 DUP2 MSTORE PUSH1 0x20 ADD PUSH1 0x0 KECCAK256 PUSH1 0x0 ADD PUSH1 0x0 PUSH1 0x5 DUP2 MSTORE PUSH1 0x20 ADD SWAP1 DUP2 MSTORE PUSH1 0x20 ADD PUSH1 0x0 KECCAK256 PUSH1 0x1 ADD DUP2 SWAP1 SSTORE POP PUSH1 0x1 DUP1 PUSH1 0x0 PUSH1 0x1 DUP2 MSTORE PUSH1 0x20 ADD SWAP1 DUP2 MSTORE PUSH1 0x20 ADD PUSH1 0x0 KECCAK256 PUSH1 0x0 ADD PUSH1 0x0 PUSH1 0x5 DUP2 MSTORE PUSH1 0x20 ADD SWAP1 DUP2 MSTORE PUSH1 0x20 ADD PUSH1 0x0 KECCAK256 PUSH1 0x1 ADD DUP2 SWAP1 SSTORE POP PUSH3 0xED4E00 TIMESTAMP PUSH3 0x481 SWAP2 SWAP1 PUSH3 0xD99 JUMP JUMPDEST PUSH1 0x1 PUSH1 0x0 DUP1 DUP2 MSTORE PUSH1 0x20 ADD SWAP1 DUP2 MSTORE PUSH1 0x20 ADD PUSH1 0x0 KECCAK256 PUSH1 0x2 ADD PUSH1 0x0 DUP1 DUP2 MSTORE PUSH1 0x20 ADD SWAP1 DUP2 MSTORE PUSH1 0x20 ADD PUSH1 0x0 KECCAK256 PUSH1 0x0 ADD PUSH1 0x0 DUP1 DUP2 MSTORE PUSH1 0x20 ADD SWAP1 DUP2 MSTORE PUSH1 0x20 ADD PUSH1 0x0 KECCAK256 PUSH1 0x1 ADD DUP2 SWAP1 SSTORE POP PUSH3 0xEE9F80 TIMESTAMP PUSH3 0x4D4 SWAP2 SWAP1 PUSH3 0xD99 JUMP JUMPDEST PUSH1 0x1 PUSH1 0x0 DUP1 DUP2 MSTORE PUSH1 0x20 ADD SWAP1 DUP2 MSTORE PUSH1 0x20 ADD PUSH1 0x0 KECCAK256 PUSH1 0x2 ADD PUSH1 0x0 PUSH1 0x1 DUP2 MSTORE PUSH1 0x20 ADD SWAP1 DUP2 MSTORE PUSH1 0x20 ADD PUSH1 0x0 KECCAK256 PUSH1 0x0 ADD PUSH1 0x0 DUP1 DUP2 MSTORE PUSH1 0x20 ADD SWAP1 DUP2 MSTORE PUSH1 0x20 ADD PUSH1 0x0 KECCAK256 PUSH1 0x1 ADD DUP2 SWAP1 SSTORE POP PUSH3 0xEFF100 TIMESTAMP PUSH3 0x528 SWAP2 SWAP1 PUSH3 0xD99 JUMP JUMPDEST PUSH1 0x1 PUSH1 0x0 DUP1 DUP2 MSTORE PUSH1 0x20 ADD SWAP1 DUP2 MSTORE PUSH1 0x20 ADD PUSH1 0x0 KECCAK256 PUSH1 0x2 ADD PUSH1 0x0 PUSH1 0x2 DUP2 MSTORE PUSH1 0x20 ADD SWAP1 DUP2 MSTORE PUSH1 0x20 ADD PUSH1 0x0 KECCAK256 PUSH1 0x0 ADD PUSH1 0x0 DUP1 DUP2 MSTORE PUSH1 0x20 ADD SWAP1 DUP2 MSTORE PUSH1 0x20 ADD PUSH1 0x0 KECCAK256 PUSH1 0x1 ADD DUP2 SWAP1 SSTORE POP PUSH1 0x1 TIMESTAMP PUSH3 0x57A SWAP2 SWAP1 PUSH3 0xD99 JUMP JUMPDEST PUSH1 0x1 PUSH1 0x0 PUSH1 0x1 DUP2 MSTORE PUSH1 0x20 ADD SWAP1 DUP2 MSTORE PUSH1 0x20 ADD PUSH1 0x0 KECCAK256 PUSH1 0x2 ADD PUSH1 0x0 DUP1 DUP2 MSTORE PUSH1 0x20 ADD SWAP1 DUP2 MSTORE PUSH1 0x20 ADD PUSH1 0x0 KECCAK256 PUSH1 0x0 ADD PUSH1 0x0 DUP1 DUP2 MSTORE PUSH1 0x20 ADD SWAP1 DUP2 MSTORE PUSH1 0x20 ADD PUSH1 0x0 KECCAK256 PUSH1 0x1 ADD DUP2 SWAP1 SSTORE POP PUSH1 0x2 TIMESTAMP PUSH3 0x5CC SWAP2 SWAP1 PUSH3 0xD99 JUMP JUMPDEST PUSH1 0x1 PUSH1 0x0 PUSH1 0x1 DUP2 MSTORE PUSH1 0x20 ADD SWAP1 DUP2 MSTORE PUSH1 0x20 ADD PUSH1 0x0 KECCAK256 PUSH1 0x2 ADD PUSH1 0x0 PUSH1 0x1 DUP2 MSTORE PUSH1 0x20 ADD SWAP1 DUP2 MSTORE PUSH1 0x20 ADD PUSH1 0x0 KECCAK256 PUSH1 0x0 ADD PUSH1 0x0 DUP1 DUP2 MSTORE PUSH1 0x20 ADD SWAP1 DUP2 MSTORE PUSH1 0x20 ADD PUSH1 0x0 KECCAK256 PUSH1 0x1 ADD DUP2 SWAP1 SSTORE POP PUSH1 0x3 TIMESTAMP PUSH3 0x61F SWAP2 SWAP1 PUSH3 0xD99 JUMP JUMPDEST PUSH1 0x1 PUSH1 0x0 PUSH1 0x1 DUP2 MSTORE PUSH1 0x20 ADD SWAP1 DUP2 MSTORE PUSH1 0x20 ADD PUSH1 0x0 KECCAK256 PUSH1 0x2 ADD PUSH1 0x0 PUSH1 0x2 DUP2 MSTORE PUSH1 0x20 ADD SWAP1 DUP2 MSTORE PUSH1 0x20 ADD PUSH1 0x0 KECCAK256 PUSH1 0x0 ADD PUSH1 0x0 DUP1 DUP2 MSTORE PUSH1 0x20 ADD SWAP1 DUP2 MSTORE PUSH1 0x20 ADD PUSH1 0x0 KECCAK256 PUSH1 0x1 ADD DUP2 SWAP1 SSTORE POP PUSH1 0x40 MLOAD DUP1 PUSH1 0x40 ADD PUSH1 0x40 MSTORE DUP1 PUSH1 0x8 DUP2 MSTORE PUSH1 0x20 ADD PUSH32 0x6D61747572697479000000000000000000000000000000000000000000000000 DUP2 MSTORE POP PUSH1 0x1 PUSH1 0x0 DUP1 DUP2 MSTORE PUSH1 0x20 ADD SWAP1 DUP2 MSTORE PUSH1 0x20 ADD PUSH1 0x0 KECCAK256 PUSH1 0x1 ADD PUSH1 0x0 DUP1 DUP2 MSTORE PUSH1 0x20 ADD SWAP1 DUP2 MSTORE PUSH1 0x20 ADD PUSH1 0x0 KECCAK256 PUSH1 0x0 ADD SWAP1 DUP2 PUSH3 0x6D1 SWAP2 SWAP1 PUSH3 0xC83 JUMP JUMPDEST POP PUSH1 0x40 MLOAD DUP1 PUSH1 0x40 ADD PUSH1 0x40 MSTORE DUP1 PUSH1 0x3 DUP2 MSTORE PUSH1 0x20 ADD PUSH32 0x696E740000000000000000000000000000000000000000000000000000000000 DUP2 MSTORE POP PUSH1 0x1 PUSH1 0x0 DUP1 DUP2 MSTORE PUSH1 0x20 ADD SWAP1 DUP2 MSTORE PUSH1 0x20 ADD PUSH1 0x0 KECCAK256 PUSH1 0x1 ADD PUSH1 0x0 DUP1 DUP2 MSTORE PUSH1 0x20 ADD SWAP1 DUP2 MSTORE PUSH1 0x20 ADD PUSH1 0x0 KECCAK256 PUSH1 0x1 ADD SWAP1 DUP2 PUSH3 0x740 SWAP2 SWAP1 PUSH3 0xC83 JUMP JUMPDEST POP PUSH1 0x40 MLOAD DUP1 PUSH1 0x40 ADD PUSH1 0x40 MSTORE DUP1 PUSH1 0x18 DUP2 MSTORE PUSH1 0x20 ADD PUSH32 0x6D61747572697479206461746520696E20696E74656765720000000000000000 DUP2 MSTORE POP PUSH1 0x1 PUSH1 0x0 DUP1 DUP2 MSTORE PUSH1 0x20 ADD SWAP1 DUP2 MSTORE PUSH1 0x20 ADD PUSH1 0x0 KECCAK256 PUSH1 0x1 ADD PUSH1 0x0 DUP1 DUP2 MSTORE PUSH1 0x20 ADD SWAP1 DUP2 MSTORE PUSH1 0x20 ADD PUSH1 0x0 KECCAK256 PUSH1 0x2 ADD SWAP1 DUP2 PUSH3 0x7AF SWAP2 SWAP1 PUSH3 0xC83 JUMP JUMPDEST POP PUSH1 0x40 MLOAD DUP1 PUSH1 0x40 ADD PUSH1 0x40 MSTORE DUP1 PUSH1 0x8 DUP2 MSTORE PUSH1 0x20 ADD PUSH32 0x6D61747572697479000000000000000000000000000000000000000000000000 DUP2 MSTORE POP PUSH1 0x1 PUSH1 0x0 PUSH1 0x1 DUP2 MSTORE PUSH1 0x20 ADD SWAP1 DUP2 MSTORE PUSH1 0x20 ADD PUSH1 0x0 KECCAK256 PUSH1 0x1 ADD PUSH1 0x0 DUP1 DUP2 MSTORE PUSH1 0x20 ADD SWAP1 DUP2 MSTORE PUSH1 0x20 ADD PUSH1 0x0 KECCAK256 PUSH1 0x0 ADD SWAP1 DUP2 PUSH3 0x81F SWAP2 SWAP1 PUSH3 0xC83 JUMP JUMPDEST POP PUSH1 0x40 MLOAD DUP1 PUSH1 0x40 ADD PUSH1 0x40 MSTORE DUP1 PUSH1 0x3 DUP2 MSTORE PUSH1 0x20 ADD PUSH32 0x696E740000000000000000000000000000000000000000000000000000000000 DUP2 MSTORE POP PUSH1 0x1 PUSH1 0x0 DUP1 DUP2 MSTORE PUSH1 0x20 ADD SWAP1 DUP2 MSTORE PUSH1 0x20 ADD PUSH1 0x0 KECCAK256 PUSH1 0x1 ADD PUSH1 0x0 DUP1 DUP2 MSTORE PUSH1 0x20 ADD SWAP1 DUP2 MSTORE PUSH1 0x20 ADD PUSH1 0x0 KECCAK256 PUSH1 0x1 ADD SWAP1 DUP2 PUSH3 0x88E SWAP2 SWAP1 PUSH3 0xC83 JUMP JUMPDEST POP PUSH1 0x40 MLOAD DUP1 PUSH1 0x40 ADD PUSH1 0x40 MSTORE DUP1 PUSH1 0x18 DUP2 MSTORE PUSH1 0x20 ADD PUSH32 0x6D61747572697479206461746520696E20696E74656765720000000000000000 DUP2 MSTORE POP PUSH1 0x1 PUSH1 0x0 PUSH1 0x1 DUP2 MSTORE PUSH1 0x20 ADD SWAP1 DUP2 MSTORE PUSH1 0x20 ADD PUSH1 0x0 KECCAK256 PUSH1 0x1 ADD PUSH1 0x0 DUP1 DUP2 MSTORE PUSH1 0x20 ADD SWAP1 DUP2 MSTORE PUSH1 0x20 ADD PUSH1 0x0 KECCAK256 PUSH1 0x2 ADD SWAP1 DUP2 PUSH3 0x8FE SWAP2 SWAP1 PUSH3 0xC83 JUMP JUMPDEST POP PUSH1 0x1 DUP1 PUSH1 0x0 DUP1 DUP2 MSTORE PUSH1 0x20 ADD SWAP1 DUP2 MSTORE PUSH1 0x20 ADD PUSH1 0x0 KECCAK256 PUSH1 0x2 ADD PUSH1 0x0 DUP1 DUP2 MSTORE PUSH1 0x20 ADD SWAP1 DUP2 MSTORE PUSH1 0x20 ADD PUSH1 0x0 KECCAK256 PUSH1 0x0 ADD PUSH1 0x0 DUP1 DUP2 MSTORE PUSH1 0x20 ADD SWAP1 DUP2 MSTORE PUSH1 0x20 ADD PUSH1 0x0 KECCAK256 PUSH1 0x2 ADD PUSH1 0x14 PUSH2 0x100 EXP DUP2 SLOAD DUP2 PUSH1 0xFF MUL NOT AND SWAP1 DUP4 ISZERO ISZERO MUL OR SWAP1 SSTORE POP PUSH1 0x1 DUP1 PUSH1 0x0 DUP1 DUP2 MSTORE PUSH1 0x20 ADD SWAP1 DUP2 MSTORE PUSH1 0x20 ADD PUSH1 0x0 KECCAK256 PUSH1 0x2 ADD PUSH1 0x0 PUSH1 0x1 DUP2 MSTORE PUSH1 0x20 ADD SWAP1 DUP2 MSTORE PUSH1 0x20 ADD PUSH1 0x0 KECCAK256 PUSH1 0x0 ADD PUSH1 0x0 DUP1 DUP2 MSTORE PUSH1 0x20 ADD SWAP1 DUP2 MSTORE PUSH1 0x20 ADD PUSH1 0x0 KECCAK256 PUSH1 0x2 ADD PUSH1 0x14 PUSH2 0x100 EXP DUP2 SLOAD DUP2 PUSH1 0xFF MUL NOT AND SWAP1 DUP4 ISZERO ISZERO MUL OR SWAP1 SSTORE POP PUSH1 0x1 DUP1 PUSH1 0x0 DUP1 DUP2 MSTORE PUSH1 0x20 ADD SWAP1 DUP2 MSTORE PUSH1 0x20 ADD PUSH1 0x0 KECCAK256 PUSH1 0x2 ADD PUSH1 0x0 PUSH1 0x2 DUP2 MSTORE PUSH1 0x20 ADD SWAP1 DUP2 MSTORE PUSH1 0x20 ADD PUSH1 0x0 KECCAK256 PUSH1 0x0 ADD PUSH1 0x0 DUP1 DUP2 MSTORE PUSH1 0x20 ADD SWAP1 DUP2 MSTORE PUSH1 0x20 ADD PUSH1 0x0 KECCAK256 PUSH1 0x2 ADD PUSH1 0x14 PUSH2 0x100 EXP DUP2 SLOAD DUP2 PUSH1 0xFF MUL NOT AND SWAP1 DUP4 ISZERO ISZERO MUL OR SWAP1 SSTORE POP PUSH3 0xDD4 JUMP JUMPDEST PUSH1 0x0 DUP2 MLOAD SWAP1 POP SWAP2 SWAP1 POP JUMP JUMPDEST PUSH32 0x4E487B7100000000000000000000000000000000000000000000000000000000 PUSH1 0x0 MSTORE PUSH1 0x41 PUSH1 0x4 MSTORE PUSH1 0x24 PUSH1 0x0 REVERT JUMPDEST PUSH32 0x4E487B7100000000000000000000000000000000000000000000000000000000 PUSH1 0x0 MSTORE PUSH1 0x22 PUSH1 0x4 MSTORE PUSH1 0x24 PUSH1 0x0 REVERT JUMPDEST PUSH1 0x0 PUSH1 0x2 DUP3 DIV SWAP1 POP PUSH1 0x1 DUP3 AND DUP1 PUSH3 0xA8B JUMPI PUSH1 0x7F DUP3 AND SWAP2 POP JUMPDEST PUSH1 0x20 DUP3 LT DUP2 SUB PUSH3 0xAA1 JUMPI PUSH3 0xAA0 PUSH3 0xA43 JUMP JUMPDEST JUMPDEST POP SWAP2 SWAP1 POP JUMP JUMPDEST PUSH1 0x0 DUP2 SWAP1 POP DUP2 PUSH1 0x0 MSTORE PUSH1 0x20 PUSH1 0x0 KECCAK256 SWAP1 POP SWAP2 SWAP1 POP JUMP JUMPDEST PUSH1 0x0 PUSH1 0x20 PUSH1 0x1F DUP4 ADD DIV SWAP1 POP SWAP2 SWAP1 POP JUMP JUMPDEST PUSH1 0x0 DUP3 DUP3 SHL SWAP1 POP SWAP3 SWAP2 POP POP JUMP JUMPDEST PUSH1 0x0 PUSH1 0x8 DUP4 MUL PUSH3 0xB0B PUSH32 0xFFFFFFFFFFFFFFFFFFFFFFFFFFFFFFFFFFFFFFFFFFFFFFFFFFFFFFFFFFFFFFFF DUP3 PUSH3 0xACC JUMP JUMPDEST PUSH3 0xB17 DUP7 DUP4 PUSH3 0xACC JUMP JUMPDEST SWAP6 POP DUP1 NOT DUP5 AND SWAP4 POP DUP1 DUP7 AND DUP5 OR SWAP3 POP POP POP SWAP4 SWAP3 POP POP POP JUMP JUMPDEST PUSH1 0x0 DUP2 SWAP1 POP SWAP2 SWAP1 POP JUMP JUMPDEST PUSH1 0x0 DUP2 SWAP1 POP SWAP2 SWAP1 POP JUMP JUMPDEST PUSH1 0x0 PUSH3 0xB64 PUSH3 0xB5E PUSH3 0xB58 DUP5 PUSH3 0xB2F JUMP JUMPDEST PUSH3 0xB39 JUMP JUMPDEST PUSH3 0xB2F JUMP JUMPDEST SWAP1 POP SWAP2 SWAP1 POP JUMP JUMPDEST PUSH1 0x0 DUP2 SWAP1 POP SWAP2 SWAP1 POP JUMP JUMPDEST PUSH3 0xB80 DUP4 PUSH3 0xB43 JUMP JUMPDEST PUSH3 0xB98 PUSH3 0xB8F DUP3 PUSH3 0xB6B JUMP JUMPDEST DUP5 DUP5 SLOAD PUSH3 0xAD9 JUMP JUMPDEST DUP3 SSTORE POP POP POP POP JUMP JUMPDEST PUSH1 0x0 SWAP1 JUMP JUMPDEST PUSH3 0xBAF PUSH3 0xBA0 JUMP JUMPDEST PUSH3 0xBBC DUP2 DUP5 DUP5 PUSH3 0xB75 JUMP JUMPDEST POP POP POP JUMP JUMPDEST JUMPDEST DUP2 DUP2 LT ISZERO PUSH3 0xBE4 JUMPI PUSH3 0xBD8 PUSH1 0x0 DUP3 PUSH3 0xBA5 JUMP JUMPDEST PUSH1 0x1 DUP2 ADD SWAP1 POP PUSH3 0xBC2 JUMP JUMPDEST POP POP JUMP JUMPDEST PUSH1 0x1F DUP3 GT ISZERO PUSH3 0xC33 JUMPI PUSH3 0xBFD DUP2 PUSH3 0xAA7 JUMP JUMPDEST PUSH3 0xC08 DUP5 PUSH3 0xABC JUMP JUMPDEST DUP2 ADD PUSH1 0x20 DUP6 LT ISZERO PUSH3 0xC18 JUMPI DUP2 SWAP1 POP JUMPDEST PUSH3 0xC30 PUSH3 0xC27 DUP6 PUSH3 0xABC JUMP JUMPDEST DUP4 ADD DUP3 PUSH3 0xBC1 JUMP JUMPDEST POP POP JUMPDEST POP POP POP JUMP JUMPDEST PUSH1 0x0 DUP3 DUP3 SHR SWAP1 POP SWAP3 SWAP2 POP POP JUMP JUMPDEST PUSH1 0x0 PUSH3 0xC58 PUSH1 0x0 NOT DUP5 PUSH1 0x8 MUL PUSH3 0xC38 JUMP JUMPDEST NOT DUP1 DUP4 AND SWAP2 POP POP SWAP3 SWAP2 POP POP JUMP JUMPDEST PUSH1 0x0 PUSH3 0xC73 DUP4 DUP4 PUSH3 0xC45 JUMP JUMPDEST SWAP2 POP DUP3 PUSH1 0x2 MUL DUP3 OR SWAP1 POP SWAP3 SWAP2 POP POP JUMP JUMPDEST PUSH3 0xC8E DUP3 PUSH3 0xA09 JUMP JUMPDEST PUSH8 0xFFFFFFFFFFFFFFFF DUP2 GT ISZERO PUSH3 0xCAA JUMPI PUSH3 0xCA9 PUSH3 0xA14 JUMP JUMPDEST JUMPDEST PUSH3 0xCB6 DUP3 SLOAD PUSH3 0xA72 JUMP JUMPDEST PUSH3 0xCC3 DUP3 DUP3 DUP6 PUSH3 0xBE8 JUMP JUMPDEST PUSH1 0x0 PUSH1 0x20 SWAP1 POP PUSH1 0x1F DUP4 GT PUSH1 0x1 DUP2 EQ PUSH3 0xCFB JUMPI PUSH1 0x0 DUP5 ISZERO PUSH3 0xCE6 JUMPI DUP3 DUP8 ADD MLOAD SWAP1 POP JUMPDEST PUSH3 0xCF2 DUP6 DUP3 PUSH3 0xC65 JUMP JUMPDEST DUP7 SSTORE POP PUSH3 0xD62 JUMP JUMPDEST PUSH1 0x1F NOT DUP5 AND PUSH3 0xD0B DUP7 PUSH3 0xAA7 JUMP JUMPDEST PUSH1 0x0 JUMPDEST DUP3 DUP2 LT ISZERO PUSH3 0xD35 JUMPI DUP5 DUP10 ADD MLOAD DUP3 SSTORE PUSH1 0x1 DUP3 ADD SWAP2 POP PUSH1 0x20 DUP6 ADD SWAP5 POP PUSH1 0x20 DUP2 ADD SWAP1 POP PUSH3 0xD0E JUMP JUMPDEST DUP7 DUP4 LT ISZERO PUSH3 0xD55 JUMPI DUP5 DUP10 ADD MLOAD PUSH3 0xD51 PUSH1 0x1F DUP10 AND DUP3 PUSH3 0xC45 JUMP JUMPDEST DUP4 SSTORE POP JUMPDEST PUSH1 0x1 PUSH1 0x2 DUP9 MUL ADD DUP9 SSTORE POP POP POP JUMPDEST POP POP POP POP POP POP JUMP JUMPDEST PUSH32 0x4E487B7100000000000000000000000000000000000000000000000000000000 PUSH1 0x0 MSTORE PUSH1 0x11 PUSH1 0x4 MSTORE PUSH1 0x24 PUSH1 0x0 REVERT JUMPDEST PUSH1 0x0 PUSH3 0xDA6 DUP3 PUSH3 0xB2F JUMP JUMPDEST SWAP2 POP PUSH3 0xDB3 DUP4 PUSH3 0xB2F JUMP JUMPDEST SWAP3 POP DUP3 DUP3 ADD SWAP1 POP DUP1 DUP3 GT ISZERO PUSH3 0xDCE JUMPI PUSH3 0xDCD PUSH3 0xD6A JUMP JUMPDEST JUMPDEST SWAP3 SWAP2 POP POP JUMP JUMPDEST PUSH2 0x30F7 DUP1 PUSH3 0xDE4 PUSH1 0x0 CODECOPY PUSH1 0x0 RETURN INVALID PUSH1 0x80 PUSH1 0x40 MSTORE CALLVALUE DUP1 ISZERO PUSH2 0x10 JUMPI PUSH1 0x0 DUP1 REVERT JUMPDEST POP PUSH1 0x4 CALLDATASIZE LT PUSH2 0x121 JUMPI PUSH1 0x0 CALLDATALOAD PUSH1 0xE0 SHR DUP1 PUSH4 0x693F5548 GT PUSH2 0xAD JUMPI DUP1 PUSH4 0xBC3C19F7 GT PUSH2 0x71 JUMPI DUP1 PUSH4 0xBC3C19F7 EQ PUSH2 0x34F JUMPI DUP1 PUSH4 0xC2458D6B EQ PUSH2 0x37F JUMPI DUP1 PUSH4 0xC7DA92E1 EQ PUSH2 0x3AF JUMPI DUP1 PUSH4 0xCCEA7B86 EQ PUSH2 0x3DF JUMPI DUP1 PUSH4 0xF3273696 EQ PUSH2 0x40F JUMPI PUSH2 0x121 JUMP JUMPDEST DUP1 PUSH4 0x693F5548 EQ PUSH2 0x29B JUMPI DUP1 PUSH4 0x7228CFAF EQ PUSH2 0x2CB JUMPI DUP1 PUSH4 0x88DAD954 EQ PUSH2 0x2E7 JUMPI DUP1 PUSH4 0x9D3FED38 EQ PUSH2 0x303 JUMPI DUP1 PUSH4 0xB15EDBE5 EQ PUSH2 0x31F JUMPI PUSH2 0x121 JUMP JUMPDEST DUP1 PUSH4 0x2D760D57 GT PUSH2 0xF4 JUMPI DUP1 PUSH4 0x2D760D57 EQ PUSH2 0x1BE JUMPI DUP1 PUSH4 0x3CF3A604 EQ PUSH2 0x1EE JUMPI DUP1 PUSH4 0x443B63B9 EQ PUSH2 0x21E JUMPI DUP1 PUSH4 0x4BB95AA2 EQ PUSH2 0x24E JUMPI DUP1 PUSH4 0x572E5EF2 EQ PUSH2 0x26A JUMPI PUSH2 0x121 JUMP JUMPDEST DUP1 PUSH4 0x29BA4EB EQ PUSH2 0x126 JUMPI DUP1 PUSH4 0xD345F4F EQ PUSH2 0x156 JUMPI DUP1 PUSH4 0x19AB3939 EQ PUSH2 0x172 JUMPI DUP1 PUSH4 0x1FA03A2B EQ PUSH2 0x18E JUMPI JUMPDEST PUSH1 0x0 DUP1 REVERT JUMPDEST PUSH2 0x140 PUSH1 0x4 DUP1 CALLDATASIZE SUB DUP2 ADD SWAP1 PUSH2 0x13B SWAP2 SWAP1 PUSH2 0x212B JUMP JUMPDEST PUSH2 0x42B JUMP JUMPDEST PUSH1 0x40 MLOAD PUSH2 0x14D SWAP2 SWAP1 PUSH2 0x2259 JUMP JUMPDEST PUSH1 0x40 MLOAD DUP1 SWAP2 SUB SWAP1 RETURN JUMPDEST PUSH2 0x170 PUSH1 0x4 DUP1 CALLDATASIZE SUB DUP2 ADD SWAP1 PUSH2 0x16B SWAP2 SWAP1 PUSH2 0x233E JUMP JUMPDEST PUSH2 0x623 JUMP JUMPDEST STOP JUMPDEST PUSH2 0x18C PUSH1 0x4 DUP1 CALLDATASIZE SUB DUP2 ADD SWAP1 PUSH2 0x187 SWAP2 SWAP1 PUSH2 0x233E JUMP JUMPDEST PUSH2 0x7C7 JUMP JUMPDEST STOP JUMPDEST PUSH2 0x1A8 PUSH1 0x4 DUP1 CALLDATASIZE SUB DUP2 ADD SWAP1 PUSH2 0x1A3 SWAP2 SWAP1 PUSH2 0x239E JUMP JUMPDEST PUSH2 0x8EC JUMP JUMPDEST PUSH1 0x40 MLOAD PUSH2 0x1B5 SWAP2 SWAP1 PUSH2 0x23F9 JUMP JUMPDEST PUSH1 0x40 MLOAD DUP1 SWAP2 SUB SWAP1 RETURN JUMPDEST PUSH2 0x1D8 PUSH1 0x4 DUP1 CALLDATASIZE SUB DUP2 ADD SWAP1 PUSH2 0x1D3 SWAP2 SWAP1 PUSH2 0x2414 JUMP JUMPDEST PUSH2 0x97F JUMP JUMPDEST PUSH1 0x40 MLOAD PUSH2 0x1E5 SWAP2 SWAP1 PUSH2 0x2476 JUMP JUMPDEST PUSH1 0x40 MLOAD DUP1 SWAP2 SUB SWAP1 RETURN JUMPDEST PUSH2 0x208 PUSH1 0x4 DUP1 CALLDATASIZE SUB DUP2 ADD SWAP1 PUSH2 0x203 SWAP2 SWAP1 PUSH2 0x2491 JUMP JUMPDEST PUSH2 0xA60 JUMP JUMPDEST PUSH1 0x40 MLOAD PUSH2 0x215 SWAP2 SWAP1 PUSH2 0x2259 JUMP JUMPDEST PUSH1 0x40 MLOAD DUP1 SWAP2 SUB SWAP1 RETURN JUMPDEST PUSH2 0x238 PUSH1 0x4 DUP1 CALLDATASIZE SUB DUP2 ADD SWAP1 PUSH2 0x233 SWAP2 SWAP1 PUSH2 0x24BE JUMP JUMPDEST PUSH2 0xC43 JUMP JUMPDEST PUSH1 0x40 MLOAD PUSH2 0x245 SWAP2 SWAP1 PUSH2 0x2476 JUMP JUMPDEST PUSH1 0x40 MLOAD DUP1 SWAP2 SUB SWAP1 RETURN JUMPDEST PUSH2 0x268 PUSH1 0x4 DUP1 CALLDATASIZE SUB DUP2 ADD SWAP1 PUSH2 0x263 SWAP2 SWAP1 PUSH2 0x2551 JUMP JUMPDEST PUSH2 0xCF4 JUMP JUMPDEST STOP JUMPDEST PUSH2 0x284 PUSH1 0x4 DUP1 CALLDATASIZE SUB DUP2 ADD SWAP1 PUSH2 0x27F SWAP2 SWAP1 PUSH2 0x212B JUMP JUMPDEST PUSH2 0xDF0 JUMP JUMPDEST PUSH1 0x40 MLOAD PUSH2 0x292 SWAP3 SWAP2 SWAP1 PUSH2 0x2591 JUMP JUMPDEST PUSH1 0x40 MLOAD DUP1 SWAP2 SUB SWAP1 RETURN JUMPDEST PUSH2 0x2B5 PUSH1 0x4 DUP1 CALLDATASIZE SUB DUP2 ADD SWAP1 PUSH2 0x2B0 SWAP2 SWAP1 PUSH2 0x25BA JUMP JUMPDEST PUSH2 0xEB9 JUMP JUMPDEST PUSH1 0x40 MLOAD PUSH2 0x2C2 SWAP2 SWAP1 PUSH2 0x269D JUMP JUMPDEST PUSH1 0x40 MLOAD DUP1 SWAP2 SUB SWAP1 RETURN JUMPDEST PUSH2 0x2E5 PUSH1 0x4 DUP1 CALLDATASIZE SUB DUP2 ADD SWAP1 PUSH2 0x2E0 SWAP2 SWAP1 PUSH2 0x233E JUMP JUMPDEST PUSH2 0x101D JUMP JUMPDEST STOP JUMPDEST PUSH2 0x301 PUSH1 0x4 DUP1 CALLDATASIZE SUB DUP2 ADD SWAP1 PUSH2 0x2FC SWAP2 SWAP1 PUSH2 0x26BF JUMP JUMPDEST PUSH2 0x1141 JUMP JUMPDEST STOP JUMPDEST PUSH2 0x31D PUSH1 0x4 DUP1 CALLDATASIZE SUB DUP2 ADD SWAP1 PUSH2 0x318 SWAP2 SWAP1 PUSH2 0x233E JUMP JUMPDEST PUSH2 0x136D JUMP JUMPDEST STOP JUMPDEST PUSH2 0x339 PUSH1 0x4 DUP1 CALLDATASIZE SUB DUP2 ADD SWAP1 PUSH2 0x334 SWAP2 SWAP1 PUSH2 0x212B JUMP JUMPDEST PUSH2 0x151D JUMP JUMPDEST PUSH1 0x40 MLOAD PUSH2 0x346 SWAP2 SWAP1 PUSH2 0x2476 JUMP JUMPDEST PUSH1 0x40 MLOAD DUP1 SWAP2 SUB SWAP1 RETURN JUMPDEST PUSH2 0x369 PUSH1 0x4 DUP1 CALLDATASIZE SUB DUP2 ADD SWAP1 PUSH2 0x364 SWAP2 SWAP1 PUSH2 0x212B JUMP JUMPDEST PUSH2 0x1552 JUMP JUMPDEST PUSH1 0x40 MLOAD PUSH2 0x376 SWAP2 SWAP1 PUSH2 0x2476 JUMP JUMPDEST PUSH1 0x40 MLOAD DUP1 SWAP2 SUB SWAP1 RETURN JUMPDEST PUSH2 0x399 PUSH1 0x4 DUP1 CALLDATASIZE SUB DUP2 ADD SWAP1 PUSH2 0x394 SWAP2 SWAP1 PUSH2 0x212B JUMP JUMPDEST PUSH2 0x1587 JUMP JUMPDEST PUSH1 0x40 MLOAD PUSH2 0x3A6 SWAP2 SWAP1 PUSH2 0x2476 JUMP JUMPDEST PUSH1 0x40 MLOAD DUP1 SWAP2 SUB SWAP1 RETURN JUMPDEST PUSH2 0x3C9 PUSH1 0x4 DUP1 CALLDATASIZE SUB DUP2 ADD SWAP1 PUSH2 0x3C4 SWAP2 SWAP1 PUSH2 0x212B JUMP JUMPDEST PUSH2 0x15C3 JUMP JUMPDEST PUSH1 0x40 MLOAD PUSH2 0x3D6 SWAP2 SWAP1 PUSH2 0x269D JUMP JUMPDEST PUSH1 0x40 MLOAD DUP1 SWAP2 SUB SWAP1 RETURN JUMPDEST PUSH2 0x3F9 PUSH1 0x4 DUP1 CALLDATASIZE SUB DUP2 ADD SWAP1 PUSH2 0x3F4 SWAP2 SWAP1 PUSH2 0x212B JUMP JUMPDEST PUSH2 0x1712 JUMP JUMPDEST PUSH1 0x40 MLOAD PUSH2 0x406 SWAP2 SWAP1 PUSH2 0x2476 JUMP JUMPDEST PUSH1 0x40 MLOAD DUP1 SWAP2 SUB SWAP1 RETURN JUMPDEST PUSH2 0x429 PUSH1 0x4 DUP1 CALLDATASIZE SUB DUP2 ADD SWAP1 PUSH2 0x424 SWAP2 SWAP1 PUSH2 0x26BF JUMP JUMPDEST PUSH2 0x1747 JUMP JUMPDEST STOP JUMPDEST PUSH2 0x433 PUSH2 0x208A JUMP JUMPDEST PUSH1 0x1 PUSH1 0x0 DUP5 DUP2 MSTORE PUSH1 0x20 ADD SWAP1 DUP2 MSTORE PUSH1 0x20 ADD PUSH1 0x0 KECCAK256 PUSH1 0x1 ADD PUSH1 0x0 DUP4 DUP2 MSTORE PUSH1 0x20 ADD SWAP1 DUP2 MSTORE PUSH1 0x20 ADD PUSH1 0x0 KECCAK256 PUSH1 0x40 MLOAD DUP1 PUSH1 0x60 ADD PUSH1 0x40 MSTORE SWAP1 DUP2 PUSH1 0x0 DUP3 ADD DUP1 SLOAD PUSH2 0x475 SWAP1 PUSH2 0x2762 JUMP JUMPDEST DUP1 PUSH1 0x1F ADD PUSH1 0x20 DUP1 SWAP2 DIV MUL PUSH1 0x20 ADD PUSH1 0x40 MLOAD SWAP1 DUP2 ADD PUSH1 0x40 MSTORE DUP1 SWAP3 SWAP2 SWAP1 DUP2 DUP2 MSTORE PUSH1 0x20 ADD DUP3 DUP1 SLOAD PUSH2 0x4A1 SWAP1 PUSH2 0x2762 JUMP JUMPDEST DUP1 ISZERO PUSH2 0x4EE JUMPI DUP1 PUSH1 0x1F LT PUSH2 0x4C3 JUMPI PUSH2 0x100 DUP1 DUP4 SLOAD DIV MUL DUP4 MSTORE SWAP2 PUSH1 0x20 ADD SWAP2 PUSH2 0x4EE JUMP JUMPDEST DUP3 ADD SWAP2 SWAP1 PUSH1 0x0 MSTORE PUSH1 0x20 PUSH1 0x0 KECCAK256 SWAP1 JUMPDEST DUP2 SLOAD DUP2 MSTORE SWAP1 PUSH1 0x1 ADD SWAP1 PUSH1 0x20 ADD DUP1 DUP4 GT PUSH2 0x4D1 JUMPI DUP3 SWAP1 SUB PUSH1 0x1F AND DUP3 ADD SWAP2 JUMPDEST POP POP POP POP POP DUP2 MSTORE PUSH1 0x20 ADD PUSH1 0x1 DUP3 ADD DUP1 SLOAD PUSH2 0x507 SWAP1 PUSH2 0x2762 JUMP JUMPDEST DUP1 PUSH1 0x1F ADD PUSH1 0x20 DUP1 SWAP2 DIV MUL PUSH1 0x20 ADD PUSH1 0x40 MLOAD SWAP1 DUP2 ADD PUSH1 0x40 MSTORE DUP1 SWAP3 SWAP2 SWAP1 DUP2 DUP2 MSTORE PUSH1 0x20 ADD DUP3 DUP1 SLOAD PUSH2 0x533 SWAP1 PUSH2 0x2762 JUMP JUMPDEST DUP1 ISZERO PUSH2 0x580 JUMPI DUP1 PUSH1 0x1F LT PUSH2 0x555 JUMPI PUSH2 0x100 DUP1 DUP4 SLOAD DIV MUL DUP4 MSTORE SWAP2 PUSH1 0x20 ADD SWAP2 PUSH2 0x580 JUMP JUMPDEST DUP3 ADD SWAP2 SWAP1 PUSH1 0x0 MSTORE PUSH1 0x20 PUSH1 0x0 KECCAK256 SWAP1 JUMPDEST DUP2 SLOAD DUP2 MSTORE SWAP1 PUSH1 0x1 ADD SWAP1 PUSH1 0x20 ADD DUP1 DUP4 GT PUSH2 0x563 JUMPI DUP3 SWAP1 SUB PUSH1 0x1F AND DUP3 ADD SWAP2 JUMPDEST POP POP POP POP POP DUP2 MSTORE PUSH1 0x20 ADD PUSH1 0x2 DUP3 ADD DUP1 SLOAD PUSH2 0x599 SWAP1 PUSH2 0x2762 JUMP JUMPDEST DUP1 PUSH1 0x1F ADD PUSH1 0x20 DUP1 SWAP2 DIV MUL PUSH1 0x20 ADD PUSH1 0x40 MLOAD SWAP1 DUP2 ADD PUSH1 0x40 MSTORE DUP1 SWAP3 SWAP2 SWAP1 DUP2 DUP2 MSTORE PUSH1 0x20 ADD DUP3 DUP1 SLOAD PUSH2 0x5C5 SWAP1 PUSH2 0x2762 JUMP JUMPDEST DUP1 ISZERO PUSH2 0x612 JUMPI DUP1 PUSH1 0x1F LT PUSH2 0x5E7 JUMPI PUSH2 0x100 DUP1 DUP4 SLOAD DIV MUL DUP4 MSTORE SWAP2 PUSH1 0x20 ADD SWAP2 PUSH2 0x612 JUMP JUMPDEST DUP3 ADD SWAP2 SWAP1 PUSH1 0x0 MSTORE PUSH1 0x20 PUSH1 0x0 KECCAK256 SWAP1 JUMPDEST DUP2 SLOAD DUP2 MSTORE SWAP1 PUSH1 0x1 ADD SWAP1 PUSH1 0x20 ADD DUP1 DUP4 GT PUSH2 0x5F5 JUMPI DUP3 SWAP1 SUB PUSH1 0x1F AND DUP3 ADD SWAP2 JUMPDEST POP POP POP POP POP DUP2 MSTORE POP POP SWAP1 POP SWAP3 SWAP2 POP POP JUMP JUMPDEST PUSH1 0x0 PUSH20 0xFFFFFFFFFFFFFFFFFFFFFFFFFFFFFFFFFFFFFFFF AND DUP4 PUSH20 0xFFFFFFFFFFFFFFFFFFFFFFFFFFFFFFFFFFFFFFFF AND SUB PUSH2 0x692 JUMPI PUSH1 0x40 MLOAD PUSH32 0x8C379A000000000000000000000000000000000000000000000000000000000 DUP2 MSTORE PUSH1 0x4 ADD PUSH2 0x689 SWAP1 PUSH2 0x2816 JUMP JUMPDEST PUSH1 0x40 MLOAD DUP1 SWAP2 SUB SWAP1 REVERT JUMPDEST DUP3 PUSH20 0xFFFFFFFFFFFFFFFFFFFFFFFFFFFFFFFFFFFFFFFF AND CALLER PUSH20 0xFFFFFFFFFFFFFFFFFFFFFFFFFFFFFFFFFFFFFFFF AND EQ DUP1 PUSH2 0x6D2 JUMPI POP PUSH2 0x6D1 DUP4 CALLER PUSH2 0x8EC JUMP JUMPDEST JUMPDEST PUSH2 0x711 JUMPI PUSH1 0x40 MLOAD PUSH32 0x8C379A000000000000000000000000000000000000000000000000000000000 DUP2 MSTORE PUSH1 0x4 ADD PUSH2 0x708 SWAP1 PUSH2 0x28A8 JUMP JUMPDEST PUSH1 0x40 MLOAD DUP1 SWAP2 SUB SWAP1 REVERT JUMPDEST PUSH1 0x0 DUP3 DUP3 SWAP1 POP SWAP1 POP PUSH1 0x0 JUMPDEST DUP2 DUP2 LT ISZERO PUSH2 0x759 JUMPI PUSH2 0x746 DUP6 DUP6 DUP6 DUP5 DUP2 DUP2 LT PUSH2 0x73B JUMPI PUSH2 0x73A PUSH2 0x28C8 JUMP JUMPDEST JUMPDEST SWAP1 POP PUSH1 0x60 MUL ADD PUSH2 0x1997 JUMP JUMPDEST DUP1 DUP1 PUSH2 0x751 SWAP1 PUSH2 0x2926 JUMP JUMPDEST SWAP2 POP POP PUSH2 0x71C JUMP JUMPDEST POP DUP4 PUSH20 0xFFFFFFFFFFFFFFFFFFFFFFFFFFFFFFFFFFFFFFFF AND CALLER PUSH20 0xFFFFFFFFFFFFFFFFFFFFFFFFFFFFFFFFFFFFFFFF AND PUSH32 0x854463EA9C50BDBCC2EE7D49731DA876B9A8A76AC599EA54B87FC3BF49DD4BBC DUP6 DUP6 PUSH1 0x40 MLOAD PUSH2 0x7B9 SWAP3 SWAP2 SWAP1 PUSH2 0x2A87 JUMP JUMPDEST PUSH1 0x40 MLOAD DUP1 SWAP2 SUB SWAP1 LOG3 POP POP POP POP JUMP JUMPDEST PUSH1 0x0 DUP3 DUP3 SWAP1 POP SWAP1 POP PUSH1 0x0 JUMPDEST DUP2 DUP2 LT ISZERO PUSH2 0x87E JUMPI PUSH1 0x0 PUSH20 0xFFFFFFFFFFFFFFFFFFFFFFFFFFFFFFFFFFFFFFFF AND DUP6 PUSH20 0xFFFFFFFFFFFFFFFFFFFFFFFFFFFFFFFFFFFFFFFF AND SUB PUSH2 0x849 JUMPI PUSH1 0x40 MLOAD PUSH32 0x8C379A000000000000000000000000000000000000000000000000000000000 DUP2 MSTORE PUSH1 0x4 ADD PUSH2 0x840 SWAP1 PUSH2 0x2B1D JUMP JUMPDEST PUSH1 0x40 MLOAD DUP1 SWAP2 SUB SWAP1 REVERT JUMPDEST PUSH2 0x86B DUP6 DUP6 DUP6 DUP5 DUP2 DUP2 LT PUSH2 0x860 JUMPI PUSH2 0x85F PUSH2 0x28C8 JUMP JUMPDEST JUMPDEST SWAP1 POP PUSH1 0x60 MUL ADD PUSH2 0x1AF1 JUMP JUMPDEST DUP1 DUP1 PUSH2 0x876 SWAP1 PUSH2 0x2926 JUMP JUMPDEST SWAP2 POP POP PUSH2 0x7D2 JUMP JUMPDEST POP DUP4 PUSH20 0xFFFFFFFFFFFFFFFFFFFFFFFFFFFFFFFFFFFFFFFF AND CALLER PUSH20 0xFFFFFFFFFFFFFFFFFFFFFFFFFFFFFFFFFFFFFFFF AND PUSH32 0x4623E64C229A38D0D39F345A5636F4AAAD36652B7A59CC3CFEE2B2E2CF37BDF3 DUP6 DUP6 PUSH1 0x40 MLOAD PUSH2 0x8DE SWAP3 SWAP2 SWAP1 PUSH2 0x2A87 JUMP JUMPDEST PUSH1 0x40 MLOAD DUP1 SWAP2 SUB SWAP1 LOG3 POP POP POP POP JUMP JUMPDEST PUSH1 0x0 DUP1 PUSH1 0x0 DUP5 PUSH20 0xFFFFFFFFFFFFFFFFFFFFFFFFFFFFFFFFFFFFFFFF AND PUSH20 0xFFFFFFFFFFFFFFFFFFFFFFFFFFFFFFFFFFFFFFFF AND DUP2 MSTORE PUSH1 0x20 ADD SWAP1 DUP2 MSTORE PUSH1 0x20 ADD PUSH1 0x0 KECCAK256 PUSH1 0x0 DUP4 PUSH20 0xFFFFFFFFFFFFFFFFFFFFFFFFFFFFFFFFFFFFFFFF AND PUSH20 0xFFFFFFFFFFFFFFFFFFFFFFFFFFFFFFFFFFFFFFFF AND DUP2 MSTORE PUSH1 0x20 ADD SWAP1 DUP2 MSTORE PUSH1 0x20 ADD PUSH1 0x0 KECCAK256 PUSH1 0x0 SWAP1 SLOAD SWAP1 PUSH2 0x100 EXP SWAP1 DIV PUSH1 0xFF AND SWAP1 POP SWAP3 SWAP2 POP POP JUMP JUMPDEST PUSH1 0x0 DUP1 PUSH20 0xFFFFFFFFFFFFFFFFFFFFFFFFFFFFFFFFFFFFFFFF AND DUP5 PUSH20 0xFFFFFFFFFFFFFFFFFFFFFFFFFFFFFFFFFFFFFFFF AND SUB PUSH2 0x9EF JUMPI PUSH1 0x40 MLOAD PUSH32 0x8C379A000000000000000000000000000000000000000000000000000000000 DUP2 MSTORE PUSH1 0x4 ADD PUSH2 0x9E6 SWAP1 PUSH2 0x2BAF JUMP JUMPDEST PUSH1 0x40 MLOAD DUP1 SWAP2 SUB SWAP1 REVERT JUMPDEST PUSH1 0x1 PUSH1 0x0 DUP5 DUP2 MSTORE PUSH1 0x20 ADD SWAP1 DUP2 MSTORE PUSH1 0x20 ADD PUSH1 0x0 KECCAK256 PUSH1 0x2 ADD PUSH1 0x0 DUP4 DUP2 MSTORE PUSH1 0x20 ADD SWAP1 DUP2 MSTORE PUSH1 0x20 ADD PUSH1 0x0 KECCAK256 PUSH1 0x1 ADD PUSH1 0x0 DUP6 PUSH20 0xFFFFFFFFFFFFFFFFFFFFFFFFFFFFFFFFFFFFFFFF AND PUSH20 0xFFFFFFFFFFFFFFFFFFFFFFFFFFFFFFFFFFFFFFFF AND DUP2 MSTORE PUSH1 0x20 ADD SWAP1 DUP2 MSTORE PUSH1 0x20 ADD PUSH1 0x0 KECCAK256 SLOAD SWAP1 POP SWAP4 SWAP3 POP POP POP JUMP JUMPDEST PUSH2 0xA68 PUSH2 0x208A JUMP JUMPDEST PUSH1 0x2 PUSH1 0x0 DUP4 DUP2 MSTORE PUSH1 0x20 ADD SWAP1 DUP2 MSTORE PUSH1 0x20 ADD PUSH1 0x0 KECCAK256 PUSH1 0x40 MLOAD DUP1 PUSH1 0x60 ADD PUSH1 0x40 MSTORE SWAP1 DUP2 PUSH1 0x0 DUP3 ADD DUP1 SLOAD PUSH2 0xA96 SWAP1 PUSH2 0x2762 JUMP JUMPDEST DUP1 PUSH1 0x1F ADD PUSH1 0x20 DUP1 SWAP2 DIV MUL PUSH1 0x20 ADD PUSH1 0x40 MLOAD SWAP1 DUP2 ADD PUSH1 0x40 MSTORE DUP1 SWAP3 SWAP2 SWAP1 DUP2 DUP2 MSTORE PUSH1 0x20 ADD DUP3 DUP1 SLOAD PUSH2 0xAC2 SWAP1 PUSH2 0x2762 JUMP JUMPDEST DUP1 ISZERO PUSH2 0xB0F JUMPI DUP1 PUSH1 0x1F LT PUSH2 0xAE4 JUMPI PUSH2 0x100 DUP1 DUP4 SLOAD DIV MUL DUP4 MSTORE SWAP2 PUSH1 0x20 ADD SWAP2 PUSH2 0xB0F JUMP JUMPDEST DUP3 ADD SWAP2 SWAP1 PUSH1 0x0 MSTORE PUSH1 0x20 PUSH1 0x0 KECCAK256 SWAP1 JUMPDEST DUP2 SLOAD DUP2 MSTORE SWAP1 PUSH1 0x1 ADD SWAP1 PUSH1 0x20 ADD DUP1 DUP4 GT PUSH2 0xAF2 JUMPI DUP3 SWAP1 SUB PUSH1 0x1F AND DUP3 ADD SWAP2 JUMPDEST POP POP POP POP POP DUP2 MSTORE PUSH1 0x20 ADD PUSH1 0x1 DUP3 ADD DUP1 SLOAD PUSH2 0xB28 SWAP1 PUSH2 0x2762 JUMP JUMPDEST DUP1 PUSH1 0x1F ADD PUSH1 0x20 DUP1 SWAP2 DIV MUL PUSH1 0x20 ADD PUSH1 0x40 MLOAD SWAP1 DUP2 ADD PUSH1 0x40 MSTORE DUP1 SWAP3 SWAP2 SWAP1 DUP2 DUP2 MSTORE PUSH1 0x20 ADD DUP3 DUP1 SLOAD PUSH2 0xB54 SWAP1 PUSH2 0x2762 JUMP JUMPDEST DUP1 ISZERO PUSH2 0xBA1 JUMPI DUP1 PUSH1 0x1F LT PUSH2 0xB76 JUMPI PUSH2 0x100 DUP1 DUP4 SLOAD DIV MUL DUP4 MSTORE SWAP2 PUSH1 0x20 ADD SWAP2 PUSH2 0xBA1 JUMP JUMPDEST DUP3 ADD SWAP2 SWAP1 PUSH1 0x0 MSTORE PUSH1 0x20 PUSH1 0x0 KECCAK256 SWAP1 JUMPDEST DUP2 SLOAD DUP2 MSTORE SWAP1 PUSH1 0x1 ADD SWAP1 PUSH1 0x20 ADD DUP1 DUP4 GT PUSH2 0xB84 JUMPI DUP3 SWAP1 SUB PUSH1 0x1F AND DUP3 ADD SWAP2 JUMPDEST POP POP POP POP POP DUP2 MSTORE PUSH1 0x20 ADD PUSH1 0x2 DUP3 ADD DUP1 SLOAD PUSH2 0xBBA SWAP1 PUSH2 0x2762 JUMP JUMPDEST DUP1 PUSH1 0x1F ADD PUSH1 0x20 DUP1 SWAP2 DIV MUL PUSH1 0x20 ADD PUSH1 0x40 MLOAD SWAP1 DUP2 ADD PUSH1 0x40 MSTORE DUP1 SWAP3 SWAP2 SWAP1 DUP2 DUP2 MSTORE PUSH1 0x20 ADD DUP3 DUP1 SLOAD PUSH2 0xBE6 SWAP1 PUSH2 0x2762 JUMP JUMPDEST DUP1 ISZERO PUSH2 0xC33 JUMPI DUP1 PUSH1 0x1F LT PUSH2 0xC08 JUMPI PUSH2 0x100 DUP1 DUP4 SLOAD DIV MUL DUP4 MSTORE SWAP2 PUSH1 0x20 ADD SWAP2 PUSH2 0xC33 JUMP JUMPDEST DUP3 ADD SWAP2 SWAP1 PUSH1 0x0 MSTORE PUSH1 0x20 PUSH1 0x0 KECCAK256 SWAP1 JUMPDEST DUP2 SLOAD DUP2 MSTORE SWAP1 PUSH1 0x1 ADD SWAP1 PUSH1 0x20 ADD DUP1 DUP4 GT PUSH2 0xC16 JUMPI DUP3 SWAP1 SUB PUSH1 0x1F AND DUP3 ADD SWAP2 JUMPDEST POP POP POP POP POP DUP2 MSTORE POP POP SWAP1 POP SWAP2 SWAP1 POP JUMP JUMPDEST PUSH1 0x0 PUSH1 0x1 PUSH1 0x0 DUP5 DUP2 MSTORE PUSH1 0x20 ADD SWAP1 DUP2 MSTORE PUSH1 0x20 ADD PUSH1 0x0 KECCAK256 PUSH1 0x2 ADD PUSH1 0x0 DUP4 DUP2 MSTORE PUSH1 0x20 ADD SWAP1 DUP2 MSTORE PUSH1 0x20 ADD PUSH1 0x0 KECCAK256 PUSH1 0x2 ADD PUSH1 0x0 DUP7 PUSH20 0xFFFFFFFFFFFFFFFFFFFFFFFFFFFFFFFFFFFFFFFF AND PUSH20 0xFFFFFFFFFFFFFFFFFFFFFFFFFFFFFFFFFFFFFFFF AND DUP2 MSTORE PUSH1 0x20 ADD SWAP1 DUP2 MSTORE PUSH1 0x20 ADD PUSH1 0x0 KECCAK256 PUSH1 0x0 DUP6 PUSH20 0xFFFFFFFFFFFFFFFFFFFFFFFFFFFFFFFFFFFFFFFF AND PUSH20 0xFFFFFFFFFFFFFFFFFFFFFFFFFFFFFFFFFFFFFFFF AND DUP2 MSTORE PUSH1 0x20 ADD SWAP1 DUP2 MSTORE PUSH1 0x20 ADD PUSH1 0x0 KECCAK256 SLOAD SWAP1 POP SWAP5 SWAP4 POP POP POP POP JUMP JUMPDEST DUP1 PUSH1 0x0 DUP1 CALLER PUSH20 0xFFFFFFFFFFFFFFFFFFFFFFFFFFFFFFFFFFFFFFFF AND PUSH20 0xFFFFFFFFFFFFFFFFFFFFFFFFFFFFFFFFFFFFFFFF AND DUP2 MSTORE PUSH1 0x20 ADD SWAP1 DUP2 MSTORE PUSH1 0x20 ADD PUSH1 0x0 KECCAK256 PUSH1 0x0 DUP5 PUSH20 0xFFFFFFFFFFFFFFFFFFFFFFFFFFFFFFFFFFFFFFFF AND PUSH20 0xFFFFFFFFFFFFFFFFFFFFFFFFFFFFFFFFFFFFFFFF AND DUP2 MSTORE PUSH1 0x20 ADD SWAP1 DUP2 MSTORE PUSH1 0x20 ADD PUSH1 0x0 KECCAK256 PUSH1 0x0 PUSH2 0x100 EXP DUP2 SLOAD DUP2 PUSH1 0xFF MUL NOT AND SWAP1 DUP4 ISZERO ISZERO MUL OR SWAP1 SSTORE POP DUP2 PUSH20 0xFFFFFFFFFFFFFFFFFFFFFFFFFFFFFFFFFFFFFFFF AND CALLER PUSH20 0xFFFFFFFFFFFFFFFFFFFFFFFFFFFFFFFFFFFFFFFF AND PUSH32 0x3A950F10BB6DF353A4AB85913DE7C26461EDD1B6250912C3DDCBE92B91643584 DUP4 PUSH1 0x40 MLOAD PUSH2 0xDE4 SWAP2 SWAP1 PUSH2 0x23F9 JUMP JUMPDEST PUSH1 0x40 MLOAD DUP1 SWAP2 SUB SWAP1 LOG3 POP POP JUMP JUMPDEST PUSH1 0x0 DUP1 PUSH1 0x0 PUSH1 0x1 PUSH1 0x0 DUP7 DUP2 MSTORE PUSH1 0x20 ADD SWAP1 DUP2 MSTORE PUSH1 0x20 ADD PUSH1 0x0 KECCAK256 PUSH1 0x2 ADD PUSH1 0x0 DUP6 DUP2 MSTORE PUSH1 0x20 ADD SWAP1 DUP2 MSTORE PUSH1 0x20 ADD PUSH1 0x0 KECCAK256 PUSH1 0x0 ADD PUSH1 0x0 DUP1 DUP2 MSTORE PUSH1 0x20 ADD SWAP1 DUP2 MSTORE PUSH1 0x20 ADD PUSH1 0x0 KECCAK256 PUSH1 0x1 ADD SLOAD SWAP1 POP PUSH1 0x0 PUSH1 0x1 PUSH1 0x0 DUP8 DUP2 MSTORE PUSH1 0x20 ADD SWAP1 DUP2 MSTORE PUSH1 0x20 ADD PUSH1 0x0 KECCAK256 PUSH1 0x2 ADD PUSH1 0x0 DUP7 DUP2 MSTORE PUSH1 0x20 ADD SWAP1 DUP2 MSTORE PUSH1 0x20 ADD PUSH1 0x0 KECCAK256 PUSH1 0x0 ADD PUSH1 0x0 PUSH1 0x5 DUP2 MSTORE PUSH1 0x20 ADD SWAP1 DUP2 MSTORE PUSH1 0x20 ADD PUSH1 0x0 KECCAK256 PUSH1 0x1 ADD SLOAD DUP3 PUSH2 0xE83 SWAP2 SWAP1 PUSH2 0x2BCF JUMP JUMPDEST SWAP1 POP DUP2 TIMESTAMP PUSH2 0xE91 SWAP2 SWAP1 PUSH2 0x2C03 JUMP JUMPDEST SWAP4 POP DUP1 TIMESTAMP LT PUSH2 0xEA1 JUMPI PUSH1 0x0 PUSH2 0xEAE JUMP JUMPDEST TIMESTAMP DUP2 PUSH2 0xEAD SWAP2 SWAP1 PUSH2 0x2C03 JUMP JUMPDEST JUMPDEST SWAP3 POP POP POP SWAP3 POP SWAP3 SWAP1 POP JUMP JUMPDEST PUSH2 0xEC1 PUSH2 0x20AB JUMP JUMPDEST PUSH1 0x1 PUSH1 0x0 DUP6 DUP2 MSTORE PUSH1 0x20 ADD SWAP1 DUP2 MSTORE PUSH1 0x20 ADD PUSH1 0x0 KECCAK256 PUSH1 0x2 ADD PUSH1 0x0 DUP5 DUP2 MSTORE PUSH1 0x20 ADD SWAP1 DUP2 MSTORE PUSH1 0x20 ADD PUSH1 0x0 KECCAK256 PUSH1 0x0 ADD PUSH1 0x0 DUP4 DUP2 MSTORE PUSH1 0x20 ADD SWAP1 DUP2 MSTORE PUSH1 0x20 ADD PUSH1 0x0 KECCAK256 PUSH1 0x40 MLOAD DUP1 PUSH1 0x80 ADD PUSH1 0x40 MSTORE SWAP1 DUP2 PUSH1 0x0 DUP3 ADD DUP1 SLOAD PUSH2 0xF17 SWAP1 PUSH2 0x2762 JUMP JUMPDEST DUP1 PUSH1 0x1F ADD PUSH1 0x20 DUP1 SWAP2 DIV MUL PUSH1 0x20 ADD PUSH1 0x40 MLOAD SWAP1 DUP2 ADD PUSH1 0x40 MSTORE DUP1 SWAP3 SWAP2 SWAP1 DUP2 DUP2 MSTORE PUSH1 0x20 ADD DUP3 DUP1 SLOAD PUSH2 0xF43 SWAP1 PUSH2 0x2762 JUMP JUMPDEST DUP1 ISZERO PUSH2 0xF90 JUMPI DUP1 PUSH1 0x1F LT PUSH2 0xF65 JUMPI PUSH2 0x100 DUP1 DUP4 SLOAD DIV MUL DUP4 MSTORE SWAP2 PUSH1 0x20 ADD SWAP2 PUSH2 0xF90 JUMP JUMPDEST DUP3 ADD SWAP2 SWAP1 PUSH1 0x0 MSTORE PUSH1 0x20 PUSH1 0x0 KECCAK256 SWAP1 JUMPDEST DUP2 SLOAD DUP2 MSTORE SWAP1 PUSH1 0x1 ADD SWAP1 PUSH1 0x20 ADD DUP1 DUP4 GT PUSH2 0xF73 JUMPI DUP3 SWAP1 SUB PUSH1 0x1F AND DUP3 ADD SWAP2 JUMPDEST POP POP POP POP POP DUP2 MSTORE PUSH1 0x20 ADD PUSH1 0x1 DUP3 ADD SLOAD DUP2 MSTORE PUSH1 0x20 ADD PUSH1 0x2 DUP3 ADD PUSH1 0x0 SWAP1 SLOAD SWAP1 PUSH2 0x100 EXP SWAP1 DIV PUSH20 0xFFFFFFFFFFFFFFFFFFFFFFFFFFFFFFFFFFFFFFFF AND PUSH20 0xFFFFFFFFFFFFFFFFFFFFFFFFFFFFFFFFFFFFFFFF AND PUSH20 0xFFFFFFFFFFFFFFFFFFFFFFFFFFFFFFFFFFFFFFFF AND DUP2 MSTORE PUSH1 0x20 ADD PUSH1 0x2 DUP3 ADD PUSH1 0x14 SWAP1 SLOAD SWAP1 PUSH2 0x100 EXP SWAP1 DIV PUSH1 0xFF AND ISZERO ISZERO ISZERO ISZERO DUP2 MSTORE POP POP SWAP1 POP SWAP4 SWAP3 POP POP POP JUMP JUMPDEST PUSH1 0x0 JUMPDEST DUP3 DUP3 SWAP1 POP DUP2 LT ISZERO PUSH2 0x113B JUMPI DUP3 DUP3 DUP3 DUP2 DUP2 LT PUSH2 0x103E JUMPI PUSH2 0x103D PUSH2 0x28C8 JUMP JUMPDEST JUMPDEST SWAP1 POP PUSH1 0x60 MUL ADD PUSH1 0x40 ADD CALLDATALOAD PUSH1 0x1 PUSH1 0x0 DUP6 DUP6 DUP6 DUP2 DUP2 LT PUSH2 0x105F JUMPI PUSH2 0x105E PUSH2 0x28C8 JUMP JUMPDEST JUMPDEST SWAP1 POP PUSH1 0x60 MUL ADD PUSH1 0x0 ADD CALLDATALOAD DUP2 MSTORE PUSH1 0x20 ADD SWAP1 DUP2 MSTORE PUSH1 0x20 ADD PUSH1 0x0 KECCAK256 PUSH1 0x2 ADD PUSH1 0x0 DUP6 DUP6 DUP6 DUP2 DUP2 LT PUSH2 0x108F JUMPI PUSH2 0x108E PUSH2 0x28C8 JUMP JUMPDEST JUMPDEST SWAP1 POP PUSH1 0x60 MUL ADD PUSH1 0x20 ADD CALLDATALOAD DUP2 MSTORE PUSH1 0x20 ADD SWAP1 DUP2 MSTORE PUSH1 0x20 ADD PUSH1 0x0 KECCAK256 PUSH1 0x2 ADD PUSH1 0x0 CALLER PUSH20 0xFFFFFFFFFFFFFFFFFFFFFFFFFFFFFFFFFFFFFFFF AND PUSH20 0xFFFFFFFFFFFFFFFFFFFFFFFFFFFFFFFFFFFFFFFF AND DUP2 MSTORE PUSH1 0x20 ADD SWAP1 DUP2 MSTORE PUSH1 0x20 ADD PUSH1 0x0 KECCAK256 PUSH1 0x0 DUP7 PUSH20 0xFFFFFFFFFFFFFFFFFFFFFFFFFFFFFFFFFFFFFFFF AND PUSH20 0xFFFFFFFFFFFFFFFFFFFFFFFFFFFFFFFFFFFFFFFF AND DUP2 MSTORE PUSH1 0x20 ADD SWAP1 DUP2 MSTORE PUSH1 0x20 ADD PUSH1 0x0 KECCAK256 DUP2 SWAP1 SSTORE POP DUP1 DUP1 PUSH2 0x1133 SWAP1 PUSH2 0x2926 JUMP JUMPDEST SWAP2 POP POP PUSH2 0x1020 JUMP JUMPDEST POP POP POP POP JUMP JUMPDEST PUSH1 0x0 PUSH20 0xFFFFFFFFFFFFFFFFFFFFFFFFFFFFFFFFFFFFFFFF AND DUP5 PUSH20 0xFFFFFFFFFFFFFFFFFFFFFFFFFFFFFFFFFFFFFFFF AND SUB PUSH2 0x11B0 JUMPI PUSH1 0x40 MLOAD PUSH32 0x8C379A000000000000000000000000000000000000000000000000000000000 DUP2 MSTORE PUSH1 0x4 ADD PUSH2 0x11A7 SWAP1 PUSH2 0x2CA9 JUMP JUMPDEST PUSH1 0x40 MLOAD DUP1 SWAP2 SUB SWAP1 REVERT JUMPDEST PUSH1 0x0 PUSH20 0xFFFFFFFFFFFFFFFFFFFFFFFFFFFFFFFFFFFFFFFF AND DUP4 PUSH20 0xFFFFFFFFFFFFFFFFFFFFFFFFFFFFFFFFFFFFFFFF AND SUB PUSH2 0x121F JUMPI PUSH1 0x40 MLOAD PUSH32 0x8C379A000000000000000000000000000000000000000000000000000000000 DUP2 MSTORE PUSH1 0x4 ADD PUSH2 0x1216 SWAP1 PUSH2 0x2D15 JUMP JUMPDEST PUSH1 0x40 MLOAD DUP1 SWAP2 SUB SWAP1 REVERT JUMPDEST DUP4 PUSH20 0xFFFFFFFFFFFFFFFFFFFFFFFFFFFFFFFFFFFFFFFF AND CALLER PUSH20 0xFFFFFFFFFFFFFFFFFFFFFFFFFFFFFFFFFFFFFFFF AND EQ DUP1 PUSH2 0x125F JUMPI POP PUSH2 0x125E DUP5 CALLER PUSH2 0x8EC JUMP JUMPDEST JUMPDEST PUSH2 0x129E JUMPI PUSH1 0x40 MLOAD PUSH32 0x8C379A000000000000000000000000000000000000000000000000000000000 DUP2 MSTORE PUSH1 0x4 ADD PUSH2 0x1295 SWAP1 PUSH2 0x2DA7 JUMP JUMPDEST PUSH1 0x40 MLOAD DUP1 SWAP2 SUB SWAP1 REVERT JUMPDEST PUSH1 0x0 DUP3 DUP3 SWAP1 POP SWAP1 POP PUSH1 0x0 JUMPDEST DUP2 DUP2 LT ISZERO PUSH2 0x12E7 JUMPI PUSH2 0x12D4 DUP7 DUP7 DUP7 DUP7 DUP6 DUP2 DUP2 LT PUSH2 0x12C9 JUMPI PUSH2 0x12C8 PUSH2 0x28C8 JUMP JUMPDEST JUMPDEST SWAP1 POP PUSH1 0x60 MUL ADD PUSH2 0x1BA4 JUMP JUMPDEST DUP1 DUP1 PUSH2 0x12DF SWAP1 PUSH2 0x2926 JUMP JUMPDEST SWAP2 POP POP PUSH2 0x12A9 JUMP JUMPDEST POP DUP4 PUSH20 0xFFFFFFFFFFFFFFFFFFFFFFFFFFFFFFFFFFFFFFFF AND DUP6 PUSH20 0xFFFFFFFFFFFFFFFFFFFFFFFFFFFFFFFFFFFFFFFF AND CALLER PUSH20 0xFFFFFFFFFFFFFFFFFFFFFFFFFFFFFFFFFFFFFFFF AND PUSH32 0x75FABF31534D6CDDC003931B8CFFC1EFFEEA3EE3125535E609D386C8BF9EBDC4 DUP7 DUP7 PUSH1 0x40 MLOAD PUSH2 0x135E SWAP3 SWAP2 SWAP1 PUSH2 0x2A87 JUMP JUMPDEST PUSH1 0x40 MLOAD DUP1 SWAP2 SUB SWAP1 LOG4 POP POP POP POP POP JUMP JUMPDEST PUSH1 0x0 PUSH20 0xFFFFFFFFFFFFFFFFFFFFFFFFFFFFFFFFFFFFFFFF AND DUP4 PUSH20 0xFFFFFFFFFFFFFFFFFFFFFFFFFFFFFFFFFFFFFFFF AND SUB PUSH2 0x13DC JUMPI PUSH1 0x40 MLOAD PUSH32 0x8C379A000000000000000000000000000000000000000000000000000000000 DUP2 MSTORE PUSH1 0x4 ADD PUSH2 0x13D3 SWAP1 PUSH2 0x2E39 JUMP JUMPDEST PUSH1 0x40 MLOAD DUP1 SWAP2 SUB SWAP1 REVERT JUMPDEST PUSH1 0x0 DUP3 DUP3 SWAP1 POP SWAP1 POP PUSH1 0x0 JUMPDEST DUP2 DUP2 LT ISZERO PUSH2 0x14AF JUMPI PUSH1 0x0 PUSH2 0x1433 DUP6 DUP6 DUP5 DUP2 DUP2 LT PUSH2 0x1407 JUMPI PUSH2 0x1406 PUSH2 0x28C8 JUMP JUMPDEST JUMPDEST SWAP1 POP PUSH1 0x60 MUL ADD PUSH1 0x0 ADD CALLDATALOAD DUP7 DUP7 DUP6 DUP2 DUP2 LT PUSH2 0x1424 JUMPI PUSH2 0x1423 PUSH2 0x28C8 JUMP JUMPDEST JUMPDEST SWAP1 POP PUSH1 0x60 MUL ADD PUSH1 0x20 ADD CALLDATALOAD PUSH2 0xDF0 JUMP JUMPDEST SWAP2 POP POP PUSH1 0x0 DUP2 EQ PUSH2 0x1479 JUMPI PUSH1 0x40 MLOAD PUSH32 0x8C379A000000000000000000000000000000000000000000000000000000000 DUP2 MSTORE PUSH1 0x4 ADD PUSH2 0x1470 SWAP1 PUSH2 0x2EA5 JUMP JUMPDEST PUSH1 0x40 MLOAD DUP1 SWAP2 SUB SWAP1 REVERT JUMPDEST PUSH2 0x149B DUP7 DUP7 DUP7 DUP6 DUP2 DUP2 LT PUSH2 0x1490 JUMPI PUSH2 0x148F PUSH2 0x28C8 JUMP JUMPDEST JUMPDEST SWAP1 POP PUSH1 0x60 MUL ADD PUSH2 0x1D1D JUMP JUMPDEST POP DUP1 DUP1 PUSH2 0x14A7 SWAP1 PUSH2 0x2926 JUMP JUMPDEST SWAP2 POP POP PUSH2 0x13E7 JUMP JUMPDEST POP DUP4 PUSH20 0xFFFFFFFFFFFFFFFFFFFFFFFFFFFFFFFFFFFFFFFF AND CALLER PUSH20 0xFFFFFFFFFFFFFFFFFFFFFFFFFFFFFFFFFFFFFFFF AND PUSH32 0x9F652DDEA6A7FD228F90E8D46F86B0E86D8299F8CA1415C7D6AB58BBE1CD632C DUP6 DUP6 PUSH1 0x40 MLOAD PUSH2 0x150F SWAP3 SWAP2 SWAP1 PUSH2 0x2A87 JUMP JUMPDEST PUSH1 0x40 MLOAD DUP1 SWAP2 SUB SWAP1 LOG3 POP POP POP POP JUMP JUMPDEST PUSH1 0x0 PUSH1 0x1 PUSH1 0x0 DUP5 DUP2 MSTORE PUSH1 0x20 ADD SWAP1 DUP2 MSTORE PUSH1 0x20 ADD PUSH1 0x0 KECCAK256 PUSH1 0x2 ADD PUSH1 0x0 DUP4 DUP2 MSTORE PUSH1 0x20 ADD SWAP1 DUP2 MSTORE PUSH1 0x20 ADD PUSH1 0x0 KECCAK256 PUSH1 0x3 ADD SLOAD SWAP1 POP SWAP3 SWAP2 POP POP JUMP JUMPDEST PUSH1 0x0 PUSH1 0x1 PUSH1 0x0 DUP5 DUP2 MSTORE PUSH1 0x20 ADD SWAP1 DUP2 MSTORE PUSH1 0x20 ADD PUSH1 0x0 KECCAK256 PUSH1 0x2 ADD PUSH1 0x0 DUP4 DUP2 MSTORE PUSH1 0x20 ADD SWAP1 DUP2 MSTORE PUSH1 0x20 ADD PUSH1 0x0 KECCAK256 PUSH1 0x4 ADD SLOAD SWAP1 POP SWAP3 SWAP2 POP POP JUMP JUMPDEST PUSH1 0x0 PUSH2 0x1593 DUP4 DUP4 PUSH2 0x1712 JUMP JUMPDEST PUSH2 0x159D DUP5 DUP5 PUSH2 0x1552 JUMP JUMPDEST PUSH2 0x15A7 DUP6 DUP6 PUSH2 0x151D JUMP JUMPDEST PUSH2 0x15B1 SWAP2 SWAP1 PUSH2 0x2BCF JUMP JUMPDEST PUSH2 0x15BB SWAP2 SWAP1 PUSH2 0x2BCF JUMP JUMPDEST SWAP1 POP SWAP3 SWAP2 POP POP JUMP JUMPDEST PUSH2 0x15CB PUSH2 0x20AB JUMP JUMPDEST PUSH1 0x1 PUSH1 0x0 DUP5 DUP2 MSTORE PUSH1 0x20 ADD SWAP1 DUP2 MSTORE PUSH1 0x20 ADD PUSH1 0x0 KECCAK256 PUSH1 0x0 ADD PUSH1 0x0 DUP4 DUP2 MSTORE PUSH1 0x20 ADD SWAP1 DUP2 MSTORE PUSH1 0x20 ADD PUSH1 0x0 KECCAK256 PUSH1 0x40 MLOAD DUP1 PUSH1 0x80 ADD PUSH1 0x40 MSTORE SWAP1 DUP2 PUSH1 0x0 DUP3 ADD DUP1 SLOAD PUSH2 0x160D SWAP1 PUSH2 0x2762 JUMP JUMPDEST DUP1 PUSH1 0x1F ADD PUSH1 0x20 DUP1 SWAP2 DIV MUL PUSH1 0x20 ADD PUSH1 0x40 MLOAD SWAP1 DUP2 ADD PUSH1 0x40 MSTORE DUP1 SWAP3 SWAP2 SWAP1 DUP2 DUP2 MSTORE PUSH1 0x20 ADD DUP3 DUP1 SLOAD PUSH2 0x1639 SWAP1 PUSH2 0x2762 JUMP JUMPDEST DUP1 ISZERO PUSH2 0x1686 JUMPI DUP1 PUSH1 0x1F LT PUSH2 0x165B JUMPI PUSH2 0x100 DUP1 DUP4 SLOAD DIV MUL DUP4 MSTORE SWAP2 PUSH1 0x20 ADD SWAP2 PUSH2 0x1686 JUMP JUMPDEST DUP3 ADD SWAP2 SWAP1 PUSH1 0x0 MSTORE PUSH1 0x20 PUSH1 0x0 KECCAK256 SWAP1 JUMPDEST DUP2 SLOAD DUP2 MSTORE SWAP1 PUSH1 0x1 ADD SWAP1 PUSH1 0x20 ADD DUP1 DUP4 GT PUSH2 0x1669 JUMPI DUP3 SWAP1 SUB PUSH1 0x1F AND DUP3 ADD SWAP2 JUMPDEST POP POP POP POP POP DUP2 MSTORE PUSH1 0x20 ADD PUSH1 0x1 DUP3 ADD SLOAD DUP2 MSTORE PUSH1 0x20 ADD PUSH1 0x2 DUP3 ADD PUSH1 0x0 SWAP1 SLOAD SWAP1 PUSH2 0x100 EXP SWAP1 DIV PUSH20 0xFFFFFFFFFFFFFFFFFFFFFFFFFFFFFFFFFFFFFFFF AND PUSH20 0xFFFFFFFFFFFFFFFFFFFFFFFFFFFFFFFFFFFFFFFF AND PUSH20 0xFFFFFFFFFFFFFFFFFFFFFFFFFFFFFFFFFFFFFFFF AND DUP2 MSTORE PUSH1 0x20 ADD PUSH1 0x2 DUP3 ADD PUSH1 0x14 SWAP1 SLOAD SWAP1 PUSH2 0x100 EXP SWAP1 DIV PUSH1 0xFF AND ISZERO ISZERO ISZERO ISZERO DUP2 MSTORE POP POP SWAP1 POP SWAP3 SWAP2 POP POP JUMP JUMPDEST PUSH1 0x0 PUSH1 0x1 PUSH1 0x0 DUP5 DUP2 MSTORE PUSH1 0x20 ADD SWAP1 DUP2 MSTORE PUSH1 0x20 ADD PUSH1 0x0 KECCAK256 PUSH1 0x2 ADD PUSH1 0x0 DUP4 DUP2 MSTORE PUSH1 0x20 ADD SWAP1 DUP2 MSTORE PUSH1 0x20 ADD PUSH1 0x0 KECCAK256 PUSH1 0x5 ADD SLOAD SWAP1 POP SWAP3 SWAP2 POP POP JUMP JUMPDEST PUSH1 0x0 PUSH20 0xFFFFFFFFFFFFFFFFFFFFFFFFFFFFFFFFFFFFFFFF AND DUP5 PUSH20 0xFFFFFFFFFFFFFFFFFFFFFFFFFFFFFFFFFFFFFFFF AND SUB PUSH2 0x17B6 JUMPI PUSH1 0x40 MLOAD PUSH32 0x8C379A000000000000000000000000000000000000000000000000000000000 DUP2 MSTORE PUSH1 0x4 ADD PUSH2 0x17AD SWAP1 PUSH2 0x2F37 JUMP JUMPDEST PUSH1 0x40 MLOAD DUP1 SWAP2 SUB SWAP1 REVERT JUMPDEST PUSH1 0x0 PUSH20 0xFFFFFFFFFFFFFFFFFFFFFFFFFFFFFFFFFFFFFFFF AND DUP4 PUSH20 0xFFFFFFFFFFFFFFFFFFFFFFFFFFFFFFFFFFFFFFFF AND SUB PUSH2 0x1825 JUMPI PUSH1 0x40 MLOAD PUSH32 0x8C379A000000000000000000000000000000000000000000000000000000000 DUP2 MSTORE PUSH1 0x4 ADD PUSH2 0x181C SWAP1 PUSH2 0x2FA3 JUMP JUMPDEST PUSH1 0x40 MLOAD DUP1 SWAP2 SUB SWAP1 REVERT JUMPDEST PUSH1 0x0 DUP3 DUP3 SWAP1 POP SWAP1 POP PUSH1 0x0 JUMPDEST DUP2 DUP2 LT ISZERO PUSH2 0x1911 JUMPI PUSH2 0x187C DUP7 CALLER DUP7 DUP7 DUP6 DUP2 DUP2 LT PUSH2 0x1850 JUMPI PUSH2 0x184F PUSH2 0x28C8 JUMP JUMPDEST JUMPDEST SWAP1 POP PUSH1 0x60 MUL ADD PUSH1 0x0 ADD CALLDATALOAD DUP8 DUP8 DUP7 DUP2 DUP2 LT PUSH2 0x186D JUMPI PUSH2 0x186C PUSH2 0x28C8 JUMP JUMPDEST JUMPDEST SWAP1 POP PUSH1 0x60 MUL ADD PUSH1 0x20 ADD CALLDATALOAD PUSH2 0xC43 JUMP JUMPDEST DUP5 DUP5 DUP4 DUP2 DUP2 LT PUSH2 0x188F JUMPI PUSH2 0x188E PUSH2 0x28C8 JUMP JUMPDEST JUMPDEST SWAP1 POP PUSH1 0x60 MUL ADD PUSH1 0x40 ADD CALLDATALOAD GT ISZERO PUSH2 0x18DA JUMPI PUSH1 0x40 MLOAD PUSH32 0x8C379A000000000000000000000000000000000000000000000000000000000 DUP2 MSTORE PUSH1 0x4 ADD PUSH2 0x18D1 SWAP1 PUSH2 0x2DA7 JUMP JUMPDEST PUSH1 0x40 MLOAD DUP1 SWAP2 SUB SWAP1 REVERT JUMPDEST PUSH2 0x18FE CALLER DUP8 DUP8 DUP8 DUP8 DUP7 DUP2 DUP2 LT PUSH2 0x18F3 JUMPI PUSH2 0x18F2 PUSH2 0x28C8 JUMP JUMPDEST JUMPDEST SWAP1 POP PUSH1 0x60 MUL ADD PUSH2 0x1E77 JUMP JUMPDEST DUP1 DUP1 PUSH2 0x1909 SWAP1 PUSH2 0x2926 JUMP JUMPDEST SWAP2 POP POP PUSH2 0x1830 JUMP JUMPDEST POP DUP4 PUSH20 0xFFFFFFFFFFFFFFFFFFFFFFFFFFFFFFFFFFFFFFFF AND DUP6 PUSH20 0xFFFFFFFFFFFFFFFFFFFFFFFFFFFFFFFFFFFFFFFF AND CALLER PUSH20 0xFFFFFFFFFFFFFFFFFFFFFFFFFFFFFFFFFFFFFFFF AND PUSH32 0x75FABF31534D6CDDC003931B8CFFC1EFFEEA3EE3125535E609D386C8BF9EBDC4 DUP7 DUP7 PUSH1 0x40 MLOAD PUSH2 0x1988 SWAP3 SWAP2 SWAP1 PUSH2 0x2A87 JUMP JUMPDEST PUSH1 0x40 MLOAD DUP1 SWAP2 SUB SWAP1 LOG4 POP POP POP POP POP JUMP JUMPDEST PUSH1 0x0 PUSH1 0x1 PUSH1 0x0 DUP4 PUSH1 0x0 ADD CALLDATALOAD DUP2 MSTORE PUSH1 0x20 ADD SWAP1 DUP2 MSTORE PUSH1 0x20 ADD PUSH1 0x0 KECCAK256 PUSH1 0x2 ADD PUSH1 0x0 DUP4 PUSH1 0x20 ADD CALLDATALOAD DUP2 MSTORE PUSH1 0x20 ADD SWAP1 DUP2 MSTORE PUSH1 0x20 ADD PUSH1 0x0 KECCAK256 SWAP1 POP DUP2 PUSH1 0x40 ADD CALLDATALOAD DUP2 PUSH1 0x1 ADD PUSH1 0x0 DUP6 PUSH20 0xFFFFFFFFFFFFFFFFFFFFFFFFFFFFFFFFFFFFFFFF AND PUSH20 0xFFFFFFFFFFFFFFFFFFFFFFFFFFFFFFFFFFFFFFFF AND DUP2 MSTORE PUSH1 0x20 ADD SWAP1 DUP2 MSTORE PUSH1 0x20 ADD PUSH1 0x0 KECCAK256 SLOAD LT ISZERO PUSH2 0x1A52 JUMPI PUSH1 0x40 MLOAD PUSH32 0x8C379A000000000000000000000000000000000000000000000000000000000 DUP2 MSTORE PUSH1 0x4 ADD PUSH2 0x1A49 SWAP1 PUSH2 0x3035 JUMP JUMPDEST PUSH1 0x40 MLOAD DUP1 SWAP2 SUB SWAP1 REVERT JUMPDEST DUP2 PUSH1 0x40 ADD CALLDATALOAD DUP2 PUSH1 0x1 ADD PUSH1 0x0 DUP6 PUSH20 0xFFFFFFFFFFFFFFFFFFFFFFFFFFFFFFFFFFFFFFFF AND PUSH20 0xFFFFFFFFFFFFFFFFFFFFFFFFFFFFFFFFFFFFFFFF AND DUP2 MSTORE PUSH1 0x20 ADD SWAP1 DUP2 MSTORE PUSH1 0x20 ADD PUSH1 0x0 KECCAK256 PUSH1 0x0 DUP3 DUP3 SLOAD PUSH2 0x1AA7 SWAP2 SWAP1 PUSH2 0x2C03 JUMP JUMPDEST SWAP3 POP POP DUP2 SWAP1 SSTORE POP DUP2 PUSH1 0x40 ADD CALLDATALOAD DUP2 PUSH1 0x3 ADD PUSH1 0x0 DUP3 DUP3 SLOAD PUSH2 0x1AC6 SWAP2 SWAP1 PUSH2 0x2C03 JUMP JUMPDEST SWAP3 POP POP DUP2 SWAP1 SSTORE POP DUP2 PUSH1 0x40 ADD CALLDATALOAD DUP2 PUSH1 0x4 ADD PUSH1 0x0 DUP3 DUP3 SLOAD PUSH2 0x1AE5 SWAP2 SWAP1 PUSH2 0x2BCF JUMP JUMPDEST SWAP3 POP POP DUP2 SWAP1 SSTORE POP POP POP POP JUMP JUMPDEST PUSH1 0x0 PUSH1 0x1 PUSH1 0x0 DUP4 PUSH1 0x0 ADD CALLDATALOAD DUP2 MSTORE PUSH1 0x20 ADD SWAP1 DUP2 MSTORE PUSH1 0x20 ADD PUSH1 0x0 KECCAK256 PUSH1 0x2 ADD PUSH1 0x0 DUP4 PUSH1 0x20 ADD CALLDATALOAD DUP2 MSTORE PUSH1 0x20 ADD SWAP1 DUP2 MSTORE PUSH1 0x20 ADD PUSH1 0x0 KECCAK256 SWAP1 POP DUP2 PUSH1 0x40 ADD CALLDATALOAD DUP2 PUSH1 0x1 ADD PUSH1 0x0 DUP6 PUSH20 0xFFFFFFFFFFFFFFFFFFFFFFFFFFFFFFFFFFFFFFFF AND PUSH20 0xFFFFFFFFFFFFFFFFFFFFFFFFFFFFFFFFFFFFFFFF AND DUP2 MSTORE PUSH1 0x20 ADD SWAP1 DUP2 MSTORE PUSH1 0x20 ADD PUSH1 0x0 KECCAK256 PUSH1 0x0 DUP3 DUP3 SLOAD PUSH2 0x1B79 SWAP2 SWAP1 PUSH2 0x2BCF JUMP JUMPDEST SWAP3 POP POP DUP2 SWAP1 SSTORE POP DUP2 PUSH1 0x40 ADD CALLDATALOAD DUP2 PUSH1 0x3 ADD PUSH1 0x0 DUP3 DUP3 SLOAD PUSH2 0x1B98 SWAP2 SWAP1 PUSH2 0x2BCF JUMP JUMPDEST SWAP3 POP POP DUP2 SWAP1 SSTORE POP POP POP POP JUMP JUMPDEST PUSH1 0x0 PUSH1 0x1 PUSH1 0x0 DUP4 PUSH1 0x0 ADD CALLDATALOAD DUP2 MSTORE PUSH1 0x20 ADD SWAP1 DUP2 MSTORE PUSH1 0x20 ADD PUSH1 0x0 KECCAK256 PUSH1 0x2 ADD PUSH1 0x0 DUP4 PUSH1 0x20 ADD CALLDATALOAD DUP2 MSTORE PUSH1 0x20 ADD SWAP1 DUP2 MSTORE PUSH1 0x20 ADD PUSH1 0x0 KECCAK256 SWAP1 POP DUP2 PUSH1 0x40 ADD CALLDATALOAD DUP2 PUSH1 0x1 ADD PUSH1 0x0 DUP7 PUSH20 0xFFFFFFFFFFFFFFFFFFFFFFFFFFFFFFFFFFFFFFFF AND PUSH20 0xFFFFFFFFFFFFFFFFFFFFFFFFFFFFFFFFFFFFFFFF AND DUP2 MSTORE PUSH1 0x20 ADD SWAP1 DUP2 MSTORE PUSH1 0x20 ADD PUSH1 0x0 KECCAK256 SLOAD LT ISZERO PUSH2 0x1C5F JUMPI PUSH1 0x40 MLOAD PUSH32 0x8C379A000000000000000000000000000000000000000000000000000000000 DUP2 MSTORE PUSH1 0x4 ADD PUSH2 0x1C56 SWAP1 PUSH2 0x3035 JUMP JUMPDEST PUSH1 0x40 MLOAD DUP1 SWAP2 SUB SWAP1 REVERT JUMPDEST DUP2 PUSH1 0x40 ADD CALLDATALOAD DUP2 PUSH1 0x1 ADD PUSH1 0x0 DUP7 PUSH20 0xFFFFFFFFFFFFFFFFFFFFFFFFFFFFFFFFFFFFFFFF AND PUSH20 0xFFFFFFFFFFFFFFFFFFFFFFFFFFFFFFFFFFFFFFFF AND DUP2 MSTORE PUSH1 0x20 ADD SWAP1 DUP2 MSTORE PUSH1 0x20 ADD PUSH1 0x0 KECCAK256 PUSH1 0x0 DUP3 DUP3 SLOAD PUSH2 0x1CB4 SWAP2 SWAP1 PUSH2 0x2C03 JUMP JUMPDEST SWAP3 POP POP DUP2 SWAP1 SSTORE POP DUP2 PUSH1 0x40 ADD CALLDATALOAD DUP2 PUSH1 0x1 ADD PUSH1 0x0 DUP6 PUSH20 0xFFFFFFFFFFFFFFFFFFFFFFFFFFFFFFFFFFFFFFFF AND PUSH20 0xFFFFFFFFFFFFFFFFFFFFFFFFFFFFFFFFFFFFFFFF AND DUP2 MSTORE PUSH1 0x20 ADD SWAP1 DUP2 MSTORE PUSH1 0x20 ADD PUSH1 0x0 KECCAK256 PUSH1 0x0 DUP3 DUP3 SLOAD PUSH2 0x1D10 SWAP2 SWAP1 PUSH2 0x2BCF JUMP JUMPDEST SWAP3 POP POP DUP2 SWAP1 SSTORE POP POP POP POP POP JUMP JUMPDEST PUSH1 0x0 PUSH1 0x1 PUSH1 0x0 DUP4 PUSH1 0x0 ADD CALLDATALOAD DUP2 MSTORE PUSH1 0x20 ADD SWAP1 DUP2 MSTORE PUSH1 0x20 ADD PUSH1 0x0 KECCAK256 PUSH1 0x2 ADD PUSH1 0x0 DUP4 PUSH1 0x20 ADD CALLDATALOAD DUP2 MSTORE PUSH1 0x20 ADD SWAP1 DUP2 MSTORE PUSH1 0x20 ADD PUSH1 0x0 KECCAK256 SWAP1 POP DUP2 PUSH1 0x40 ADD CALLDATALOAD DUP2 PUSH1 0x1 ADD PUSH1 0x0 DUP6 PUSH20 0xFFFFFFFFFFFFFFFFFFFFFFFFFFFFFFFFFFFFFFFF AND PUSH20 0xFFFFFFFFFFFFFFFFFFFFFFFFFFFFFFFFFFFFFFFF AND DUP2 MSTORE PUSH1 0x20 ADD SWAP1 DUP2 MSTORE PUSH1 0x20 ADD PUSH1 0x0 KECCAK256 SLOAD LT ISZERO PUSH2 0x1DD8 JUMPI PUSH1 0x40 MLOAD PUSH32 0x8C379A000000000000000000000000000000000000000000000000000000000 DUP2 MSTORE PUSH1 0x4 ADD PUSH2 0x1DCF SWAP1 PUSH2 0x3035 JUMP JUMPDEST PUSH1 0x40 MLOAD DUP1 SWAP2 SUB SWAP1 REVERT JUMPDEST DUP2 PUSH1 0x40 ADD CALLDATALOAD DUP2 PUSH1 0x1 ADD PUSH1 0x0 DUP6 PUSH20 0xFFFFFFFFFFFFFFFFFFFFFFFFFFFFFFFFFFFFFFFF AND PUSH20 0xFFFFFFFFFFFFFFFFFFFFFFFFFFFFFFFFFFFFFFFF AND DUP2 MSTORE PUSH1 0x20 ADD SWAP1 DUP2 MSTORE PUSH1 0x20 ADD PUSH1 0x0 KECCAK256 PUSH1 0x0 DUP3 DUP3 SLOAD PUSH2 0x1E2D SWAP2 SWAP1 PUSH2 0x2C03 JUMP JUMPDEST SWAP3 POP POP DUP2 SWAP1 SSTORE POP DUP2 PUSH1 0x40 ADD CALLDATALOAD DUP2 PUSH1 0x3 ADD PUSH1 0x0 DUP3 DUP3 SLOAD PUSH2 0x1E4C SWAP2 SWAP1 PUSH2 0x2C03 JUMP JUMPDEST SWAP3 POP POP DUP2 SWAP1 SSTORE POP DUP2 PUSH1 0x40 ADD CALLDATALOAD DUP2 PUSH1 0x5 ADD PUSH1 0x0 DUP3 DUP3 SLOAD PUSH2 0x1E6B SWAP2 SWAP1 PUSH2 0x2BCF JUMP JUMPDEST SWAP3 POP POP DUP2 SWAP1 SSTORE POP POP POP POP JUMP JUMPDEST PUSH1 0x0 PUSH1 0x1 PUSH1 0x0 DUP4 PUSH1 0x0 ADD CALLDATALOAD DUP2 MSTORE PUSH1 0x20 ADD SWAP1 DUP2 MSTORE PUSH1 0x20 ADD PUSH1 0x0 KECCAK256 PUSH1 0x2 ADD PUSH1 0x0 DUP4 PUSH1 0x20 ADD CALLDATALOAD DUP2 MSTORE PUSH1 0x20 ADD SWAP1 DUP2 MSTORE PUSH1 0x20 ADD PUSH1 0x0 KECCAK256 SWAP1 POP DUP2 PUSH1 0x40 ADD CALLDATALOAD DUP2 PUSH1 0x1 ADD PUSH1 0x0 DUP7 PUSH20 0xFFFFFFFFFFFFFFFFFFFFFFFFFFFFFFFFFFFFFFFF AND PUSH20 0xFFFFFFFFFFFFFFFFFFFFFFFFFFFFFFFFFFFFFFFF AND DUP2 MSTORE PUSH1 0x20 ADD SWAP1 DUP2 MSTORE PUSH1 0x20 ADD PUSH1 0x0 KECCAK256 SLOAD LT ISZERO PUSH2 0x1F32 JUMPI PUSH1 0x40 MLOAD PUSH32 0x8C379A000000000000000000000000000000000000000000000000000000000 DUP2 MSTORE PUSH1 0x4 ADD PUSH2 0x1F29 SWAP1 PUSH2 0x30A1 JUMP JUMPDEST PUSH1 0x40 MLOAD DUP1 SWAP2 SUB SWAP1 REVERT JUMPDEST DUP2 PUSH1 0x40 ADD CALLDATALOAD DUP2 PUSH1 0x2 ADD PUSH1 0x0 DUP7 PUSH20 0xFFFFFFFFFFFFFFFFFFFFFFFFFFFFFFFFFFFFFFFF AND PUSH20 0xFFFFFFFFFFFFFFFFFFFFFFFFFFFFFFFFFFFFFFFF AND DUP2 MSTORE PUSH1 0x20 ADD SWAP1 DUP2 MSTORE PUSH1 0x20 ADD PUSH1 0x0 KECCAK256 PUSH1 0x0 DUP8 PUSH20 0xFFFFFFFFFFFFFFFFFFFFFFFFFFFFFFFFFFFFFFFF AND PUSH20 0xFFFFFFFFFFFFFFFFFFFFFFFFFFFFFFFFFFFFFFFF AND DUP2 MSTORE PUSH1 0x20 ADD SWAP1 DUP2 MSTORE PUSH1 0x20 ADD PUSH1 0x0 KECCAK256 PUSH1 0x0 DUP3 DUP3 SLOAD PUSH2 0x1FC4 SWAP2 SWAP1 PUSH2 0x2C03 JUMP JUMPDEST SWAP3 POP POP DUP2 SWAP1 SSTORE POP DUP2 PUSH1 0x40 ADD CALLDATALOAD DUP2 PUSH1 0x1 ADD PUSH1 0x0 DUP7 PUSH20 0xFFFFFFFFFFFFFFFFFFFFFFFFFFFFFFFFFFFFFFFF AND PUSH20 0xFFFFFFFFFFFFFFFFFFFFFFFFFFFFFFFFFFFFFFFF AND DUP2 MSTORE PUSH1 0x20 ADD SWAP1 DUP2 MSTORE PUSH1 0x20 ADD PUSH1 0x0 KECCAK256 PUSH1 0x0 DUP3 DUP3 SLOAD PUSH2 0x2020 SWAP2 SWAP1 PUSH2 0x2C03 JUMP JUMPDEST SWAP3 POP POP DUP2 SWAP1 SSTORE POP DUP2 PUSH1 0x40 ADD CALLDATALOAD DUP2 PUSH1 0x1 ADD PUSH1 0x0 DUP6 PUSH20 0xFFFFFFFFFFFFFFFFFFFFFFFFFFFFFFFFFFFFFFFF AND PUSH20 0xFFFFFFFFFFFFFFFFFFFFFFFFFFFFFFFFFFFFFFFF AND DUP2 MSTORE PUSH1 0x20 ADD SWAP1 DUP2 MSTORE PUSH1 0x20 ADD PUSH1 0x0 KECCAK256 PUSH1 0x0 DUP3 DUP3 SLOAD PUSH2 0x207C SWAP2 SWAP1 PUSH2 0x2BCF JUMP JUMPDEST SWAP3 POP POP DUP2 SWAP1 SSTORE POP POP POP POP POP POP JUMP JUMPDEST PUSH1 0x40 MLOAD DUP1 PUSH1 0x60 ADD PUSH1 0x40 MSTORE DUP1 PUSH1 0x60 DUP2 MSTORE PUSH1 0x20 ADD PUSH1 0x60 DUP2 MSTORE PUSH1 0x20 ADD PUSH1 0x60 DUP2 MSTORE POP SWAP1 JUMP JUMPDEST PUSH1 0x40 MLOAD DUP1 PUSH1 0x80 ADD PUSH1 0x40 MSTORE DUP1 PUSH1 0x60 DUP2 MSTORE PUSH1 0x20 ADD PUSH1 0x0 DUP2 MSTORE PUSH1 0x20 ADD PUSH1 0x0 PUSH20 0xFFFFFFFFFFFFFFFFFFFFFFFFFFFFFFFFFFFFFFFF AND DUP2 MSTORE PUSH1 0x20 ADD PUSH1 0x0 ISZERO ISZERO DUP2 MSTORE POP SWAP1 JUMP JUMPDEST PUSH1 0x0 DUP1 REVERT JUMPDEST PUSH1 0x0 DUP1 REVERT JUMPDEST PUSH1 0x0 DUP2 SWAP1 POP SWAP2 SWAP1 POP JUMP JUMPDEST PUSH2 0x2108 DUP2 PUSH2 0x20F5 JUMP JUMPDEST DUP2 EQ PUSH2 0x2113 JUMPI PUSH1 0x0 DUP1 REVERT JUMPDEST POP JUMP JUMPDEST PUSH1 0x0 DUP2 CALLDATALOAD SWAP1 POP PUSH2 0x2125 DUP2 PUSH2 0x20FF JUMP JUMPDEST SWAP3 SWAP2 POP POP JUMP JUMPDEST PUSH1 0x0 DUP1 PUSH1 0x40 DUP4 DUP6 SUB SLT ISZERO PUSH2 0x2142 JUMPI PUSH2 0x2141 PUSH2 0x20EB JUMP JUMPDEST JUMPDEST PUSH1 0x0 PUSH2 0x2150 DUP6 DUP3 DUP7 ADD PUSH2 0x2116 JUMP JUMPDEST SWAP3 POP POP PUSH1 0x20 PUSH2 0x2161 DUP6 DUP3 DUP7 ADD PUSH2 0x2116 JUMP JUMPDEST SWAP2 POP POP SWAP3 POP SWAP3 SWAP1 POP JUMP JUMPDEST PUSH1 0x0 DUP2 MLOAD SWAP1 POP SWAP2 SWAP1 POP JUMP JUMPDEST PUSH1 0x0 DUP3 DUP3 MSTORE PUSH1 0x20 DUP3 ADD SWAP1 POP SWAP3 SWAP2 POP POP JUMP JUMPDEST PUSH1 0x0 JUMPDEST DUP4 DUP2 LT ISZERO PUSH2 0x21A5 JUMPI DUP1 DUP3 ADD MLOAD DUP2 DUP5 ADD MSTORE PUSH1 0x20 DUP2 ADD SWAP1 POP PUSH2 0x218A JUMP JUMPDEST PUSH1 0x0 DUP5 DUP5 ADD MSTORE POP POP POP POP JUMP JUMPDEST PUSH1 0x0 PUSH1 0x1F NOT PUSH1 0x1F DUP4 ADD AND SWAP1 POP SWAP2 SWAP1 POP JUMP JUMPDEST PUSH1 0x0 PUSH2 0x21CD DUP3 PUSH2 0x216B JUMP JUMPDEST PUSH2 0x21D7 DUP2 DUP6 PUSH2 0x2176 JUMP JUMPDEST SWAP4 POP PUSH2 0x21E7 DUP2 DUP6 PUSH1 0x20 DUP7 ADD PUSH2 0x2187 JUMP JUMPDEST PUSH2 0x21F0 DUP2 PUSH2 0x21B1 JUMP JUMPDEST DUP5 ADD SWAP2 POP POP SWAP3 SWAP2 POP POP JUMP JUMPDEST PUSH1 0x0 PUSH1 0x60 DUP4 ADD PUSH1 0x0 DUP4 ADD MLOAD DUP5 DUP3 SUB PUSH1 0x0 DUP7 ADD MSTORE PUSH2 0x2218 DUP3 DUP3 PUSH2 0x21C2 JUMP JUMPDEST SWAP2 POP POP PUSH1 0x20 DUP4 ADD MLOAD DUP5 DUP3 SUB PUSH1 0x20 DUP7 ADD MSTORE PUSH2 0x2232 DUP3 DUP3 PUSH2 0x21C2 JUMP JUMPDEST SWAP2 POP POP PUSH1 0x40 DUP4 ADD MLOAD DUP5 DUP3 SUB PUSH1 0x40 DUP7 ADD MSTORE PUSH2 0x224C DUP3 DUP3 PUSH2 0x21C2 JUMP JUMPDEST SWAP2 POP POP DUP1 SWAP2 POP POP SWAP3 SWAP2 POP POP JUMP JUMPDEST PUSH1 0x0 PUSH1 0x20 DUP3 ADD SWAP1 POP DUP2 DUP2 SUB PUSH1 0x0 DUP4 ADD MSTORE PUSH2 0x2273 DUP2 DUP5 PUSH2 0x21FB JUMP JUMPDEST SWAP1 POP SWAP3 SWAP2 POP POP JUMP JUMPDEST PUSH1 0x0 PUSH20 0xFFFFFFFFFFFFFFFFFFFFFFFFFFFFFFFFFFFFFFFF DUP3 AND SWAP1 POP SWAP2 SWAP1 POP JUMP JUMPDEST PUSH1 0x0 PUSH2 0x22A6 DUP3 PUSH2 0x227B JUMP JUMPDEST SWAP1 POP SWAP2 SWAP1 POP JUMP JUMPDEST PUSH2 0x22B6 DUP2 PUSH2 0x229B JUMP JUMPDEST DUP2 EQ PUSH2 0x22C1 JUMPI PUSH1 0x0 DUP1 REVERT JUMPDEST POP JUMP JUMPDEST PUSH1 0x0 DUP2 CALLDATALOAD SWAP1 POP PUSH2 0x22D3 DUP2 PUSH2 0x22AD JUMP JUMPDEST SWAP3 SWAP2 POP POP JUMP JUMPDEST PUSH1 0x0 DUP1 REVERT JUMPDEST PUSH1 0x0 DUP1 REVERT JUMPDEST PUSH1 0x0 DUP1 REVERT JUMPDEST PUSH1 0x0 DUP1 DUP4 PUSH1 0x1F DUP5 ADD SLT PUSH2 0x22FE JUMPI PUSH2 0x22FD PUSH2 0x22D9 JUMP JUMPDEST JUMPDEST DUP3 CALLDATALOAD SWAP1 POP PUSH8 0xFFFFFFFFFFFFFFFF DUP2 GT ISZERO PUSH2 0x231B JUMPI PUSH2 0x231A PUSH2 0x22DE JUMP JUMPDEST JUMPDEST PUSH1 0x20 DUP4 ADD SWAP2 POP DUP4 PUSH1 0x60 DUP3 MUL DUP4 ADD GT ISZERO PUSH2 0x2337 JUMPI PUSH2 0x2336 PUSH2 0x22E3 JUMP JUMPDEST JUMPDEST SWAP3 POP SWAP3 SWAP1 POP JUMP JUMPDEST PUSH1 0x0 DUP1 PUSH1 0x0 PUSH1 0x40 DUP5 DUP7 SUB SLT ISZERO PUSH2 0x2357 JUMPI PUSH2 0x2356 PUSH2 0x20EB JUMP JUMPDEST JUMPDEST PUSH1 0x0 PUSH2 0x2365 DUP7 DUP3 DUP8 ADD PUSH2 0x22C4 JUMP JUMPDEST SWAP4 POP POP PUSH1 0x20 DUP5 ADD CALLDATALOAD PUSH8 0xFFFFFFFFFFFFFFFF DUP2 GT ISZERO PUSH2 0x2386 JUMPI PUSH2 0x2385 PUSH2 0x20F0 JUMP JUMPDEST JUMPDEST PUSH2 0x2392 DUP7 DUP3 DUP8 ADD PUSH2 0x22E8 JUMP JUMPDEST SWAP3 POP SWAP3 POP POP SWAP3 POP SWAP3 POP SWAP3 JUMP JUMPDEST PUSH1 0x0 DUP1 PUSH1 0x40 DUP4 DUP6 SUB SLT ISZERO PUSH2 0x23B5 JUMPI PUSH2 0x23B4 PUSH2 0x20EB JUMP JUMPDEST JUMPDEST PUSH1 0x0 PUSH2 0x23C3 DUP6 DUP3 DUP7 ADD PUSH2 0x22C4 JUMP JUMPDEST SWAP3 POP POP PUSH1 0x20 PUSH2 0x23D4 DUP6 DUP3 DUP7 ADD PUSH2 0x22C4 JUMP JUMPDEST SWAP2 POP POP SWAP3 POP SWAP3 SWAP1 POP JUMP JUMPDEST PUSH1 0x0 DUP2 ISZERO ISZERO SWAP1 POP SWAP2 SWAP1 POP JUMP JUMPDEST PUSH2 0x23F3 DUP2 PUSH2 0x23DE JUMP JUMPDEST DUP3 MSTORE POP POP JUMP JUMPDEST PUSH1 0x0 PUSH1 0x20 DUP3 ADD SWAP1 POP PUSH2 0x240E PUSH1 0x0 DUP4 ADD DUP5 PUSH2 0x23EA JUMP JUMPDEST SWAP3 SWAP2 POP POP JUMP JUMPDEST PUSH1 0x0 DUP1 PUSH1 0x0 PUSH1 0x60 DUP5 DUP7 SUB SLT ISZERO PUSH2 0x242D JUMPI PUSH2 0x242C PUSH2 0x20EB JUMP JUMPDEST JUMPDEST PUSH1 0x0 PUSH2 0x243B DUP7 DUP3 DUP8 ADD PUSH2 0x22C4 JUMP JUMPDEST SWAP4 POP POP PUSH1 0x20 PUSH2 0x244C DUP7 DUP3 DUP8 ADD PUSH2 0x2116 JUMP JUMPDEST SWAP3 POP POP PUSH1 0x40 PUSH2 0x245D DUP7 DUP3 DUP8 ADD PUSH2 0x2116 JUMP JUMPDEST SWAP2 POP POP SWAP3 POP SWAP3 POP SWAP3 JUMP JUMPDEST PUSH2 0x2470 DUP2 PUSH2 0x20F5 JUMP JUMPDEST DUP3 MSTORE POP POP JUMP JUMPDEST PUSH1 0x0 PUSH1 0x20 DUP3 ADD SWAP1 POP PUSH2 0x248B PUSH1 0x0 DUP4 ADD DUP5 PUSH2 0x2467 JUMP JUMPDEST SWAP3 SWAP2 POP POP JUMP JUMPDEST PUSH1 0x0 PUSH1 0x20 DUP3 DUP5 SUB SLT ISZERO PUSH2 0x24A7 JUMPI PUSH2 0x24A6 PUSH2 0x20EB JUMP JUMPDEST JUMPDEST PUSH1 0x0 PUSH2 0x24B5 DUP5 DUP3 DUP6 ADD PUSH2 0x2116 JUMP JUMPDEST SWAP2 POP POP SWAP3 SWAP2 POP POP JUMP JUMPDEST PUSH1 0x0 DUP1 PUSH1 0x0 DUP1 PUSH1 0x80 DUP6 DUP8 SUB SLT ISZERO PUSH2 0x24D8 JUMPI PUSH2 0x24D7 PUSH2 0x20EB JUMP JUMPDEST JUMPDEST PUSH1 0x0 PUSH2 0x24E6 DUP8 DUP3 DUP9 ADD PUSH2 0x22C4 JUMP JUMPDEST SWAP5 POP POP PUSH1 0x20 PUSH2 0x24F7 DUP8 DUP3 DUP9 ADD PUSH2 0x22C4 JUMP JUMPDEST SWAP4 POP POP PUSH1 0x40 PUSH2 0x2508 DUP8 DUP3 DUP9 ADD PUSH2 0x2116 JUMP JUMPDEST SWAP3 POP POP PUSH1 0x60 PUSH2 0x2519 DUP8 DUP3 DUP9 ADD PUSH2 0x2116 JUMP JUMPDEST SWAP2 POP POP SWAP3 SWAP6 SWAP2 SWAP5 POP SWAP3 POP JUMP JUMPDEST PUSH2 0x252E DUP2 PUSH2 0x23DE JUMP JUMPDEST DUP2 EQ PUSH2 0x2539 JUMPI PUSH1 0x0 DUP1 REVERT JUMPDEST POP JUMP JUMPDEST PUSH1 0x0 DUP2 CALLDATALOAD SWAP1 POP PUSH2 0x254B DUP2 PUSH2 0x2525 JUMP JUMPDEST SWAP3 SWAP2 POP POP JUMP JUMPDEST PUSH1 0x0 DUP1 PUSH1 0x40 DUP4 DUP6 SUB SLT ISZERO PUSH2 0x2568 JUMPI PUSH2 0x2567 PUSH2 0x20EB JUMP JUMPDEST JUMPDEST PUSH1 0x0 PUSH2 0x2576 DUP6 DUP3 DUP7 ADD PUSH2 0x22C4 JUMP JUMPDEST SWAP3 POP POP PUSH1 0x20 PUSH2 0x2587 DUP6 DUP3 DUP7 ADD PUSH2 0x253C JUMP JUMPDEST SWAP2 POP POP SWAP3 POP SWAP3 SWAP1 POP JUMP JUMPDEST PUSH1 0x0 PUSH1 0x40 DUP3 ADD SWAP1 POP PUSH2 0x25A6 PUSH1 0x0 DUP4 ADD DUP6 PUSH2 0x2467 JUMP JUMPDEST PUSH2 0x25B3 PUSH1 0x20 DUP4 ADD DUP5 PUSH2 0x2467 JUMP JUMPDEST SWAP4 SWAP3 POP POP POP JUMP JUMPDEST PUSH1 0x0 DUP1 PUSH1 0x0 PUSH1 0x60 DUP5 DUP7 SUB SLT ISZERO PUSH2 0x25D3 JUMPI PUSH2 0x25D2 PUSH2 0x20EB JUMP JUMPDEST JUMPDEST PUSH1 0x0 PUSH2 0x25E1 DUP7 DUP3 DUP8 ADD PUSH2 0x2116 JUMP JUMPDEST SWAP4 POP POP PUSH1 0x20 PUSH2 0x25F2 DUP7 DUP3 DUP8 ADD PUSH2 0x2116 JUMP JUMPDEST SWAP3 POP POP PUSH1 0x40 PUSH2 0x2603 DUP7 DUP3 DUP8 ADD PUSH2 0x2116 JUMP JUMPDEST SWAP2 POP POP SWAP3 POP SWAP3 POP SWAP3 JUMP JUMPDEST PUSH2 0x2616 DUP2 PUSH2 0x20F5 JUMP JUMPDEST DUP3 MSTORE POP POP JUMP JUMPDEST PUSH2 0x2625 DUP2 PUSH2 0x229B JUMP JUMPDEST DUP3 MSTORE POP POP JUMP JUMPDEST PUSH2 0x2634 DUP2 PUSH2 0x23DE JUMP JUMPDEST DUP3 MSTORE POP POP JUMP JUMPDEST PUSH1 0x0 PUSH1 0x80 DUP4 ADD PUSH1 0x0 DUP4 ADD MLOAD DUP5 DUP3 SUB PUSH1 0x0 DUP7 ADD MSTORE PUSH2 0x2657 DUP3 DUP3 PUSH2 0x21C2 JUMP JUMPDEST SWAP2 POP POP PUSH1 0x20 DUP4 ADD MLOAD PUSH2 0x266C PUSH1 0x20 DUP7 ADD DUP3 PUSH2 0x260D JUMP JUMPDEST POP PUSH1 0x40 DUP4 ADD MLOAD PUSH2 0x267F PUSH1 0x40 DUP7 ADD DUP3 PUSH2 0x261C JUMP JUMPDEST POP PUSH1 0x60 DUP4 ADD MLOAD PUSH2 0x2692 PUSH1 0x60 DUP7 ADD DUP3 PUSH2 0x262B JUMP JUMPDEST POP DUP1 SWAP2 POP POP SWAP3 SWAP2 POP POP JUMP JUMPDEST PUSH1 0x0 PUSH1 0x20 DUP3 ADD SWAP1 POP DUP2 DUP2 SUB PUSH1 0x0 DUP4 ADD MSTORE PUSH2 0x26B7 DUP2 DUP5 PUSH2 0x263A JUMP JUMPDEST SWAP1 POP SWAP3 SWAP2 POP POP JUMP JUMPDEST PUSH1 0x0 DUP1 PUSH1 0x0 DUP1 PUSH1 0x60 DUP6 DUP8 SUB SLT ISZERO PUSH2 0x26D9 JUMPI PUSH2 0x26D8 PUSH2 0x20EB JUMP JUMPDEST JUMPDEST PUSH1 0x0 PUSH2 0x26E7 DUP8 DUP3 DUP9 ADD PUSH2 0x22C4 JUMP JUMPDEST SWAP5 POP POP PUSH1 0x20 PUSH2 0x26F8 DUP8 DUP3 DUP9 ADD PUSH2 0x22C4 JUMP JUMPDEST SWAP4 POP POP PUSH1 0x40 DUP6 ADD CALLDATALOAD PUSH8 0xFFFFFFFFFFFFFFFF DUP2 GT ISZERO PUSH2 0x2719 JUMPI PUSH2 0x2718 PUSH2 0x20F0 JUMP JUMPDEST JUMPDEST PUSH2 0x2725 DUP8 DUP3 DUP9 ADD PUSH2 0x22E8 JUMP JUMPDEST SWAP3 POP SWAP3 POP POP SWAP3 SWAP6 SWAP2 SWAP5 POP SWAP3 POP JUMP JUMPDEST PUSH32 0x4E487B7100000000000000000000000000000000000000000000000000000000 PUSH1 0x0 MSTORE PUSH1 0x22 PUSH1 0x4 MSTORE PUSH1 0x24 PUSH1 0x0 REVERT JUMPDEST PUSH1 0x0 PUSH1 0x2 DUP3 DIV SWAP1 POP PUSH1 0x1 DUP3 AND DUP1 PUSH2 0x277A JUMPI PUSH1 0x7F DUP3 AND SWAP2 POP JUMPDEST PUSH1 0x20 DUP3 LT DUP2 SUB PUSH2 0x278D JUMPI PUSH2 0x278C PUSH2 0x2733 JUMP JUMPDEST JUMPDEST POP SWAP2 SWAP1 POP JUMP JUMPDEST PUSH1 0x0 DUP3 DUP3 MSTORE PUSH1 0x20 DUP3 ADD SWAP1 POP SWAP3 SWAP2 POP POP JUMP JUMPDEST PUSH32 0x455243333437353A2063616E2774206275726E2066726F6D20746865207A6572 PUSH1 0x0 DUP3 ADD MSTORE PUSH32 0x6F20616464726573730000000000000000000000000000000000000000000000 PUSH1 0x20 DUP3 ADD MSTORE POP JUMP JUMPDEST PUSH1 0x0 PUSH2 0x2800 PUSH1 0x29 DUP4 PUSH2 0x2793 JUMP JUMPDEST SWAP2 POP PUSH2 0x280B DUP3 PUSH2 0x27A4 JUMP JUMPDEST PUSH1 0x40 DUP3 ADD SWAP1 POP SWAP2 SWAP1 POP JUMP JUMPDEST PUSH1 0x0 PUSH1 0x20 DUP3 ADD SWAP1 POP DUP2 DUP2 SUB PUSH1 0x0 DUP4 ADD MSTORE PUSH2 0x282F DUP2 PUSH2 0x27F3 JUMP JUMPDEST SWAP1 POP SWAP2 SWAP1 POP JUMP JUMPDEST PUSH32 0x455243333437353A2063616C6C65722D6E6F742D6F776E65722D6F722D617070 PUSH1 0x0 DUP3 ADD MSTORE PUSH32 0x726F766564000000000000000000000000000000000000000000000000000000 PUSH1 0x20 DUP3 ADD MSTORE POP JUMP JUMPDEST PUSH1 0x0 PUSH2 0x2892 PUSH1 0x25 DUP4 PUSH2 0x2793 JUMP JUMPDEST SWAP2 POP PUSH2 0x289D DUP3 PUSH2 0x2836 JUMP JUMPDEST PUSH1 0x40 DUP3 ADD SWAP1 POP SWAP2 SWAP1 POP JUMP JUMPDEST PUSH1 0x0 PUSH1 0x20 DUP3 ADD SWAP1 POP DUP2 DUP2 SUB PUSH1 0x0 DUP4 ADD MSTORE PUSH2 0x28C1 DUP2 PUSH2 0x2885 JUMP JUMPDEST SWAP1 POP SWAP2 SWAP1 POP JUMP JUMPDEST PUSH32 0x4E487B7100000000000000000000000000000000000000000000000000000000 PUSH1 0x0 MSTORE PUSH1 0x32 PUSH1 0x4 MSTORE PUSH1 0x24 PUSH1 0x0 REVERT JUMPDEST PUSH32 0x4E487B7100000000000000000000000000000000000000000000000000000000 PUSH1 0x0 MSTORE PUSH1 0x11 PUSH1 0x4 MSTORE PUSH1 0x24 PUSH1 0x0 REVERT JUMPDEST PUSH1 0x0 PUSH2 0x2931 DUP3 PUSH2 0x20F5 JUMP JUMPDEST SWAP2 POP PUSH32 0xFFFFFFFFFFFFFFFFFFFFFFFFFFFFFFFFFFFFFFFFFFFFFFFFFFFFFFFFFFFFFFFF DUP3 SUB PUSH2 0x2963 JUMPI PUSH2 0x2962 PUSH2 0x28F7 JUMP JUMPDEST JUMPDEST PUSH1 0x1 DUP3 ADD SWAP1 POP SWAP2 SWAP1 POP JUMP JUMPDEST PUSH1 0x0 DUP3 DUP3 MSTORE PUSH1 0x20 DUP3 ADD SWAP1 POP SWAP3 SWAP2 POP POP JUMP JUMPDEST PUSH1 0x0 DUP2 SWAP1 POP SWAP2 SWAP1 POP JUMP JUMPDEST PUSH1 0x0 PUSH2 0x2998 PUSH1 0x20 DUP5 ADD DUP5 PUSH2 0x2116 JUMP JUMPDEST SWAP1 POP SWAP3 SWAP2 POP POP JUMP JUMPDEST PUSH1 0x60 DUP3 ADD PUSH2 0x29B1 PUSH1 0x0 DUP4 ADD DUP4 PUSH2 0x2989 JUMP JUMPDEST PUSH2 0x29BE PUSH1 0x0 DUP6 ADD DUP3 PUSH2 0x260D JUMP JUMPDEST POP PUSH2 0x29CC PUSH1 0x20 DUP4 ADD DUP4 PUSH2 0x2989 JUMP JUMPDEST PUSH2 0x29D9 PUSH1 0x20 DUP6 ADD DUP3 PUSH2 0x260D JUMP JUMPDEST POP PUSH2 0x29E7 PUSH1 0x40 DUP4 ADD DUP4 PUSH2 0x2989 JUMP JUMPDEST PUSH2 0x29F4 PUSH1 0x40 DUP6 ADD DUP3 PUSH2 0x260D JUMP JUMPDEST POP POP POP POP JUMP JUMPDEST PUSH1 0x0 PUSH2 0x2A06 DUP4 DUP4 PUSH2 0x29A0 JUMP JUMPDEST PUSH1 0x60 DUP4 ADD SWAP1 POP SWAP3 SWAP2 POP POP JUMP JUMPDEST PUSH1 0x0 DUP3 SWAP1 POP SWAP3 SWAP2 POP POP JUMP JUMPDEST PUSH1 0x0 PUSH1 0x60 DUP3 ADD SWAP1 POP SWAP2 SWAP1 POP JUMP JUMPDEST PUSH1 0x0 PUSH2 0x2A36 DUP4 DUP6 PUSH2 0x296E JUMP JUMPDEST SWAP4 POP PUSH2 0x2A41 DUP3 PUSH2 0x297F JUMP JUMPDEST DUP1 PUSH1 0x0 JUMPDEST DUP6 DUP2 LT ISZERO PUSH2 0x2A7A JUMPI PUSH2 0x2A57 DUP3 DUP5 PUSH2 0x2A12 JUMP JUMPDEST PUSH2 0x2A61 DUP9 DUP3 PUSH2 0x29FA JUMP JUMPDEST SWAP8 POP PUSH2 0x2A6C DUP4 PUSH2 0x2A1D JUMP JUMPDEST SWAP3 POP POP PUSH1 0x1 DUP2 ADD SWAP1 POP PUSH2 0x2A45 JUMP JUMPDEST POP DUP6 SWAP3 POP POP POP SWAP4 SWAP3 POP POP POP JUMP JUMPDEST PUSH1 0x0 PUSH1 0x20 DUP3 ADD SWAP1 POP DUP2 DUP2 SUB PUSH1 0x0 DUP4 ADD MSTORE PUSH2 0x2AA2 DUP2 DUP5 DUP7 PUSH2 0x2A2A JUMP JUMPDEST SWAP1 POP SWAP4 SWAP3 POP POP POP JUMP JUMPDEST PUSH32 0x455243333437353A2063616E277420697373756520746F20746865207A65726F PUSH1 0x0 DUP3 ADD MSTORE PUSH32 0x2061646472657373000000000000000000000000000000000000000000000000 PUSH1 0x20 DUP3 ADD MSTORE POP JUMP JUMPDEST PUSH1 0x0 PUSH2 0x2B07 PUSH1 0x28 DUP4 PUSH2 0x2793 JUMP JUMPDEST SWAP2 POP PUSH2 0x2B12 DUP3 PUSH2 0x2AAB JUMP JUMPDEST PUSH1 0x40 DUP3 ADD SWAP1 POP SWAP2 SWAP1 POP JUMP JUMPDEST PUSH1 0x0 PUSH1 0x20 DUP3 ADD SWAP1 POP DUP2 DUP2 SUB PUSH1 0x0 DUP4 ADD MSTORE PUSH2 0x2B36 DUP2 PUSH2 0x2AFA JUMP JUMPDEST SWAP1 POP SWAP2 SWAP1 POP JUMP JUMPDEST PUSH32 0x455243333437353A2062616C616E636520717565727920666F7220746865207A PUSH1 0x0 DUP3 ADD MSTORE PUSH32 0x65726F2061646472657373000000000000000000000000000000000000000000 PUSH1 0x20 DUP3 ADD MSTORE POP JUMP JUMPDEST PUSH1 0x0 PUSH2 0x2B99 PUSH1 0x2B DUP4 PUSH2 0x2793 JUMP JUMPDEST SWAP2 POP PUSH2 0x2BA4 DUP3 PUSH2 0x2B3D JUMP JUMPDEST PUSH1 0x40 DUP3 ADD SWAP1 POP SWAP2 SWAP1 POP JUMP JUMPDEST PUSH1 0x0 PUSH1 0x20 DUP3 ADD SWAP1 POP DUP2 DUP2 SUB PUSH1 0x0 DUP4 ADD MSTORE PUSH2 0x2BC8 DUP2 PUSH2 0x2B8C JUMP JUMPDEST SWAP1 POP SWAP2 SWAP1 POP JUMP JUMPDEST PUSH1 0x0 PUSH2 0x2BDA DUP3 PUSH2 0x20F5 JUMP JUMPDEST SWAP2 POP PUSH2 0x2BE5 DUP4 PUSH2 0x20F5 JUMP JUMPDEST SWAP3 POP DUP3 DUP3 ADD SWAP1 POP DUP1 DUP3 GT ISZERO PUSH2 0x2BFD JUMPI PUSH2 0x2BFC PUSH2 0x28F7 JUMP JUMPDEST JUMPDEST SWAP3 SWAP2 POP POP JUMP JUMPDEST PUSH1 0x0 PUSH2 0x2C0E DUP3 PUSH2 0x20F5 JUMP JUMPDEST SWAP2 POP PUSH2 0x2C19 DUP4 PUSH2 0x20F5 JUMP JUMPDEST SWAP3 POP DUP3 DUP3 SUB SWAP1 POP DUP2 DUP2 GT ISZERO PUSH2 0x2C31 JUMPI PUSH2 0x2C30 PUSH2 0x28F7 JUMP JUMPDEST JUMPDEST SWAP3 SWAP2 POP POP JUMP JUMPDEST PUSH32 0x455243333437353A2063616E2774207472616E736665722066726F6D20746865 PUSH1 0x0 DUP3 ADD MSTORE PUSH32 0x207A65726F206164647265737300000000000000000000000000000000000000 PUSH1 0x20 DUP3 ADD MSTORE POP JUMP JUMPDEST PUSH1 0x0 PUSH2 0x2C93 PUSH1 0x2D DUP4 PUSH2 0x2793 JUMP JUMPDEST SWAP2 POP PUSH2 0x2C9E DUP3 PUSH2 0x2C37 JUMP JUMPDEST PUSH1 0x40 DUP3 ADD SWAP1 POP SWAP2 SWAP1 POP JUMP JUMPDEST PUSH1 0x0 PUSH1 0x20 DUP3 ADD SWAP1 POP DUP2 DUP2 SUB PUSH1 0x0 DUP4 ADD MSTORE PUSH2 0x2CC2 DUP2 PUSH2 0x2C86 JUMP JUMPDEST SWAP1 POP SWAP2 SWAP1 POP JUMP JUMPDEST PUSH32 0x455243333437353A757365206275726E282920696E7374656164000000000000 PUSH1 0x0 DUP3 ADD MSTORE POP JUMP JUMPDEST PUSH1 0x0 PUSH2 0x2CFF PUSH1 0x1A DUP4 PUSH2 0x2793 JUMP JUMPDEST SWAP2 POP PUSH2 0x2D0A DUP3 PUSH2 0x2CC9 JUMP JUMPDEST PUSH1 0x20 DUP3 ADD SWAP1 POP SWAP2 SWAP1 POP JUMP JUMPDEST PUSH1 0x0 PUSH1 0x20 DUP3 ADD SWAP1 POP DUP2 DUP2 SUB PUSH1 0x0 DUP4 ADD MSTORE PUSH2 0x2D2E DUP2 PUSH2 0x2CF2 JUMP JUMPDEST SWAP1 POP SWAP2 SWAP1 POP JUMP JUMPDEST PUSH32 0x455243333437353A63616C6C65722D6E6F742D6F776E65722D6F722D61707072 PUSH1 0x0 DUP3 ADD MSTORE PUSH32 0x6F76656400000000000000000000000000000000000000000000000000000000 PUSH1 0x20 DUP3 ADD MSTORE POP JUMP JUMPDEST PUSH1 0x0 PUSH2 0x2D91 PUSH1 0x24 DUP4 PUSH2 0x2793 JUMP JUMPDEST SWAP2 POP PUSH2 0x2D9C DUP3 PUSH2 0x2D35 JUMP JUMPDEST PUSH1 0x40 DUP3 ADD SWAP1 POP SWAP2 SWAP1 POP JUMP JUMPDEST PUSH1 0x0 PUSH1 0x20 DUP3 ADD SWAP1 POP DUP2 DUP2 SUB PUSH1 0x0 DUP4 ADD MSTORE PUSH2 0x2DC0 DUP2 PUSH2 0x2D84 JUMP JUMPDEST SWAP1 POP SWAP2 SWAP1 POP JUMP JUMPDEST PUSH32 0x455243333437353A2063616E27742072656465656D2066726F6D20746865207A PUSH1 0x0 DUP3 ADD MSTORE PUSH32 0x65726F2061646472657373000000000000000000000000000000000000000000 PUSH1 0x20 DUP3 ADD MSTORE POP JUMP JUMPDEST PUSH1 0x0 PUSH2 0x2E23 PUSH1 0x2B DUP4 PUSH2 0x2793 JUMP JUMPDEST SWAP2 POP PUSH2 0x2E2E DUP3 PUSH2 0x2DC7 JUMP JUMPDEST PUSH1 0x40 DUP3 ADD SWAP1 POP SWAP2 SWAP1 POP JUMP JUMPDEST PUSH1 0x0 PUSH1 0x20 DUP3 ADD SWAP1 POP DUP2 DUP2 SUB PUSH1 0x0 DUP4 ADD MSTORE PUSH2 0x2E52 DUP2 PUSH2 0x2E16 JUMP JUMPDEST SWAP1 POP SWAP2 SWAP1 POP JUMP JUMPDEST PUSH32 0x45524333343735204572726F723A204E6F742072656465656D61626C65000000 PUSH1 0x0 DUP3 ADD MSTORE POP JUMP JUMPDEST PUSH1 0x0 PUSH2 0x2E8F PUSH1 0x1D DUP4 PUSH2 0x2793 JUMP JUMPDEST SWAP2 POP PUSH2 0x2E9A DUP3 PUSH2 0x2E59 JUMP JUMPDEST PUSH1 0x20 DUP3 ADD SWAP1 POP SWAP2 SWAP1 POP JUMP JUMPDEST PUSH1 0x0 PUSH1 0x20 DUP3 ADD SWAP1 POP DUP2 DUP2 SUB PUSH1 0x0 DUP4 ADD MSTORE PUSH2 0x2EBE DUP2 PUSH2 0x2E82 JUMP JUMPDEST SWAP1 POP SWAP2 SWAP1 POP JUMP JUMPDEST PUSH32 0x455243333437353A2063616E2774207472616E7366657220616C6C6F77656420 PUSH1 0x0 DUP3 ADD MSTORE PUSH32 0x616D742066726F6D207A65726F20616464726573730000000000000000000000 PUSH1 0x20 DUP3 ADD MSTORE POP JUMP JUMPDEST PUSH1 0x0 PUSH2 0x2F21 PUSH1 0x35 DUP4 PUSH2 0x2793 JUMP JUMPDEST SWAP2 POP PUSH2 0x2F2C DUP3 PUSH2 0x2EC5 JUMP JUMPDEST PUSH1 0x40 DUP3 ADD SWAP1 POP SWAP2 SWAP1 POP JUMP JUMPDEST PUSH1 0x0 PUSH1 0x20 DUP3 ADD SWAP1 POP DUP2 DUP2 SUB PUSH1 0x0 DUP4 ADD MSTORE PUSH2 0x2F50 DUP2 PUSH2 0x2F14 JUMP JUMPDEST SWAP1 POP SWAP2 SWAP1 POP JUMP JUMPDEST PUSH32 0x455243333437353A20757365206275726E282920696E73746561640000000000 PUSH1 0x0 DUP3 ADD MSTORE POP JUMP JUMPDEST PUSH1 0x0 PUSH2 0x2F8D PUSH1 0x1B DUP4 PUSH2 0x2793 JUMP JUMPDEST SWAP2 POP PUSH2 0x2F98 DUP3 PUSH2 0x2F57 JUMP JUMPDEST PUSH1 0x20 DUP3 ADD SWAP1 POP SWAP2 SWAP1 POP JUMP JUMPDEST PUSH1 0x0 PUSH1 0x20 DUP3 ADD SWAP1 POP DUP2 DUP2 SUB PUSH1 0x0 DUP4 ADD MSTORE PUSH2 0x2FBC DUP2 PUSH2 0x2F80 JUMP JUMPDEST SWAP1 POP SWAP2 SWAP1 POP JUMP JUMPDEST PUSH32 0x455243333437353A206E6F7420656E6F75676820626F6E6420746F207472616E PUSH1 0x0 DUP3 ADD MSTORE PUSH32 0x7366657200000000000000000000000000000000000000000000000000000000 PUSH1 0x20 DUP3 ADD MSTORE POP JUMP JUMPDEST PUSH1 0x0 PUSH2 0x301F PUSH1 0x24 DUP4 PUSH2 0x2793 JUMP JUMPDEST SWAP2 POP PUSH2 0x302A DUP3 PUSH2 0x2FC3 JUMP JUMPDEST PUSH1 0x40 DUP3 ADD SWAP1 POP SWAP2 SWAP1 POP JUMP JUMPDEST PUSH1 0x0 PUSH1 0x20 DUP3 ADD SWAP1 POP DUP2 DUP2 SUB PUSH1 0x0 DUP4 ADD MSTORE PUSH2 0x304E DUP2 PUSH2 0x3012 JUMP JUMPDEST SWAP1 POP SWAP2 SWAP1 POP JUMP JUMPDEST PUSH32 0x455243333437353A206E6F7420616C6C6F77656420616D6F756E740000000000 PUSH1 0x0 DUP3 ADD MSTORE POP JUMP JUMPDEST PUSH1 0x0 PUSH2 0x308B PUSH1 0x1B DUP4 PUSH2 0x2793 JUMP JUMPDEST SWAP2 POP PUSH2 0x3096 DUP3 PUSH2 0x3055 JUMP JUMPDEST PUSH1 0x20 DUP3 ADD SWAP1 POP SWAP2 SWAP1 POP JUMP JUMPDEST PUSH1 0x0 PUSH1 0x20 DUP3 ADD SWAP1 POP DUP2 DUP2 SUB PUSH1 0x0 DUP4 ADD MSTORE PUSH2 0x30BA DUP2 PUSH2 0x307E JUMP JUMPDEST SWAP1 POP SWAP2 SWAP1 POP JUMP INVALID LOG2 PUSH5 0x6970667358 0x22 SLT KECCAK256 0x5D SDIV 0x49 ORIGIN 0x49 LOG4 STATICCALL SWAP8 RETURN 0xE0 MLOAD 0x23 0xAA INVALID PUSH1 0xC3 0x4B LT 0x4C KECCAK256 JUMPI 0xDF 0x2C 0x27 PUSH12 0x7CB5C040E720164736F6C63 NUMBER STOP ADDMOD GT STOP CALLER PUSH5 0x657461696C PUSH20 0x2061626F75742069737375616E636520616E6420 PUSH19 0x6564656D7074696F6E2074696D650000000000 "},"methodIdentifiers":{"activeSupply(uint256,uint256)":"b15edbe5","allowance(address,address,uint256,uint256)":"443b63b9","approve(address,(uint256,uint256,uint256)[])":"7228cfaf","balanceOf(address,uint256,uint256)":"2d760d57","burn(address,(uint256,uint256,uint256)[])":"0d345f4f","burnedSupply(uint256,uint256)":"bc3c19f7","classMetadata(uint256)":"3cf3a604","classValues(uint256,uint256)":"c7da92e1","getProgress(uint256,uint256)":"572e5ef2","isApprovedFor(address,address)":"1fa03a2b","issue(address,(uint256,uint256,uint256)[])":"19ab3939","nonceMetadata(uint256,uint256)":"029ba4eb","nonceValues(uint256,uint256,uint256)":"693f5548","redeem(address,(uint256,uint256,uint256)[])":"9d3fed38","redeemedSupply(uint256,uint256)":"ccea7b86","setApprovalFor(address,bool)":"4bb95aa2","totalSupply(uint256,uint256)":"c2458d6b","transferAllowanceFrom(address,address,(uint256,uint256,uint256)[])":"f3273696","transferFrom(address,address,(uint256,uint256,uint256)[])":"88dad954"}}}}}